{"contracts/Credentials.sol":{"CredentialRegistry":{"abi":[{"inputs":[{"internalType":"address","name":"initialOwner","type":"address"}],"stateMutability":"nonpayable","type":"constructor"},{"inputs":[{"internalType":"address","name":"owner","type":"address"}],"name":"OwnableInvalidOwner","type":"error"},{"inputs":[{"internalType":"address","name":"account","type":"address"}],"name":"OwnableUnauthorizedAccount","type":"error"},{"anonymous":false,"inputs":[{"indexed":true,"internalType":"uint256","name":"credentialId","type":"uint256"},{"indexed":true,"internalType":"address","name":"issuer","type":"address"},{"indexed":true,"internalType":"address","name":"recipient","type":"address"},{"indexed":false,"internalType":"string","name":"credentialType","type":"string"}],"name":"CredentialIssued","type":"event"},{"anonymous":false,"inputs":[{"indexed":true,"internalType":"uint256","name":"credentialId","type":"uint256"},{"indexed":true,"internalType":"address","name":"revoker","type":"address"},{"indexed":false,"internalType":"string","name":"reason","type":"string"}],"name":"CredentialRevoked","type":"event"},{"anonymous":false,"inputs":[{"indexed":true,"internalType":"address","name":"issuer","type":"address"}],"name":"IssuerAdded","type":"event"},{"anonymous":false,"inputs":[{"indexed":true,"internalType":"address","name":"issuer","type":"address"}],"name":"IssuerRemoved","type":"event"},{"anonymous":false,"inputs":[{"indexed":true,"internalType":"address","name":"previousOwner","type":"address"},{"indexed":true,"internalType":"address","name":"newOwner","type":"address"}],"name":"OwnershipTransferred","type":"event"},{"inputs":[{"internalType":"address","name":"issuer","type":"address"}],"name":"addIssuer","outputs":[],"stateMutability":"nonpayable","type":"function"},{"inputs":[{"internalType":"address","name":"","type":"address"}],"name":"authorizedIssuers","outputs":[{"internalType":"bool","name":"","type":"bool"}],"stateMutability":"view","type":"function"},{"inputs":[{"internalType":"uint256","name":"","type":"uint256"}],"name":"credentials","outputs":[{"internalType":"string","name":"metadataURI","type":"string"},{"internalType":"string","name":"credentialType","type":"string"},{"internalType":"address","name":"issuedTo","type":"address"},{"internalType":"address","name":"issuedBy","type":"address"},{"internalType":"uint256","name":"issuedAt","type":"uint256"},{"internalType":"enum CredentialRegistry.Status","name":"status","type":"uint8"},{"internalType":"string","name":"revocationReason","type":"string"}],"stateMutability":"view","type":"function"},{"inputs":[{"internalType":"address","name":"","type":"address"},{"internalType":"uint256","name":"","type":"uint256"}],"name":"credentialsOfOwner","outputs":[{"internalType":"uint256","name":"","type":"uint256"}],"stateMutability":"view","type":"function"},{"inputs":[{"internalType":"uint256","name":"credentialId","type":"uint256"}],"name":"getCredentialById","outputs":[{"components":[{"internalType":"string","name":"metadataURI","type":"string"},{"internalType":"string","name":"credentialType","type":"string"},{"internalType":"address","name":"issuedTo","type":"address"},{"internalType":"address","name":"issuedBy","type":"address"},{"internalType":"uint256","name":"issuedAt","type":"uint256"},{"internalType":"enum CredentialRegistry.Status","name":"status","type":"uint8"},{"internalType":"string","name":"revocationReason","type":"string"}],"internalType":"struct CredentialRegistry.Credential","name":"","type":"tuple"}],"stateMutability":"view","type":"function"},{"inputs":[{"internalType":"address","name":"owner","type":"address"}],"name":"getCredentialsOf","outputs":[{"internalType":"uint256[]","name":"","type":"uint256[]"}],"stateMutability":"view","type":"function"},{"inputs":[{"internalType":"address","name":"recipient","type":"address"},{"internalType":"string","name":"credentialType","type":"string"},{"internalType":"string","name":"metadataURI","type":"string"}],"name":"issueCredential","outputs":[{"internalType":"uint256","name":"","type":"uint256"}],"stateMutability":"nonpayable","type":"function"},{"inputs":[],"name":"owner","outputs":[{"internalType":"address","name":"","type":"address"}],"stateMutability":"view","type":"function"},{"inputs":[{"internalType":"address","name":"issuer","type":"address"}],"name":"removeIssuer","outputs":[],"stateMutability":"nonpayable","type":"function"},{"inputs":[],"name":"renounceOwnership","outputs":[],"stateMutability":"nonpayable","type":"function"},{"inputs":[{"internalType":"uint256","name":"credentialId","type":"uint256"},{"internalType":"string","name":"reason","type":"string"}],"name":"revokeCredential","outputs":[],"stateMutability":"nonpayable","type":"function"},{"inputs":[{"internalType":"address","name":"newOwner","type":"address"}],"name":"transferOwnership","outputs":[],"stateMutability":"nonpayable","type":"function"}],"evm":{"bytecode":{"linkReferences":{},"object":"60806040523480156200001157600080fd5b5060405162002219380380620022198339818101604052810190620000379190620001fb565b80600073ffffffffffffffffffffffffffffffffffffffff168173ffffffffffffffffffffffffffffffffffffffff1603620000ad5760006040517f1e4fbdf7000000000000000000000000000000000000000000000000000000008152600401620000a491906200023e565b60405180910390fd5b620000be81620000cd60201b60201c565b5060018081905550506200025b565b60008060009054906101000a900473ffffffffffffffffffffffffffffffffffffffff169050816000806101000a81548173ffffffffffffffffffffffffffffffffffffffff021916908373ffffffffffffffffffffffffffffffffffffffff1602179055508173ffffffffffffffffffffffffffffffffffffffff168173ffffffffffffffffffffffffffffffffffffffff167f8be0079c531659141344cd1fd0a4f28419497f9722a3daafe3b4186f6b6457e060405160405180910390a35050565b600080fd5b600073ffffffffffffffffffffffffffffffffffffffff82169050919050565b6000620001c38262000196565b9050919050565b620001d581620001b6565b8114620001e157600080fd5b50565b600081519050620001f581620001ca565b92915050565b60006020828403121562000214576200021362000191565b5b60006200022484828501620001e4565b91505092915050565b6200023881620001b6565b82525050565b60006020820190506200025560008301846200022d565b92915050565b611fae806200026b6000396000f3fe608060405234801561001057600080fd5b50600436106100b45760003560e01c8063957a320511610071578063957a3205146101795780639f4ed4fb14610195578063e0574e3f146101c5578063f2fde38b146101fb578063f731fa0f14610217578063fb19c3b614610247576100b4565b806320694db0146100b957806321b4b0e6146100d55780633ef39e2a1461010557806347bc709314610135578063715018a6146101515780638da5cb5b1461015b575b600080fd5b6100d360048036038101906100ce91906112f0565b610277565b005b6100ef60048036038101906100ea9190611353565b61031d565b6040516100fc91906113a2565b60405180910390f35b61011f600480360381019061011a91906113bd565b61034e565b60405161012c91906115b9565b60405180910390f35b61014f600480360381019061014a91906112f0565b61067b565b005b610159610721565b005b610163610735565b60405161017091906115ea565b60405180910390f35b610193600480360381019061018e919061173a565b61075e565b005b6101af60048036038101906101aa9190611796565b610a27565b6040516101bc91906113a2565b60405180910390f35b6101df60048036038101906101da91906113bd565b610d4c565b6040516101f2979695949392919061187a565b60405180910390f35b610215600480360381019061021091906112f0565b610f73565b005b610231600480360381019061022c91906112f0565b610ff9565b60405161023e9190611919565b60405180910390f35b610261600480360381019061025c91906112f0565b611019565b60405161026e91906119e3565b60405180910390f35b61027f6110b0565b6001600460008373ffffffffffffffffffffffffffffffffffffffff1673ffffffffffffffffffffffffffffffffffffffff16815260200190815260200160002060006101000a81548160ff0219169083151502179055508073ffffffffffffffffffffffffffffffffffffffff167f05e7c881d716bee8cb7ed92293133ba156704252439e5c502c277448f04e20c260405160405180910390a250565b6003602052816000526040600020818154811061033957600080fd5b90600052602060002001600091509150505481565b610356611203565b60006002600084815260200190815260200160002060040154036103af576040517f08c379a00000000000000000000000000000000000000000000000000000000081526004016103a690611a51565b60405180910390fd5b600260008381526020019081526020016000206040518060e00160405290816000820180546103dd90611aa0565b80601f016020809104026020016040519081016040528092919081815260200182805461040990611aa0565b80156104565780601f1061042b57610100808354040283529160200191610456565b820191906000526020600020905b81548152906001019060200180831161043957829003601f168201915b5050505050815260200160018201805461046f90611aa0565b80601f016020809104026020016040519081016040528092919081815260200182805461049b90611aa0565b80156104e85780601f106104bd576101008083540402835291602001916104e8565b820191906000526020600020905b8154815290600101906020018083116104cb57829003601f168201915b505050505081526020016002820160009054906101000a900473ffffffffffffffffffffffffffffffffffffffff1673ffffffffffffffffffffffffffffffffffffffff1673ffffffffffffffffffffffffffffffffffffffff1681526020016003820160009054906101000a900473ffffffffffffffffffffffffffffffffffffffff1673ffffffffffffffffffffffffffffffffffffffff1673ffffffffffffffffffffffffffffffffffffffff168152602001600482015481526020016005820160009054906101000a900460ff1660018111156105cc576105cb611498565b5b60018111156105de576105dd611498565b5b81526020016006820180546105f290611aa0565b80601f016020809104026020016040519081016040528092919081815260200182805461061e90611aa0565b801561066b5780601f106106405761010080835404028352916020019161066b565b820191906000526020600020905b81548152906001019060200180831161064e57829003601f168201915b5050505050815250509050919050565b6106836110b0565b6000600460008373ffffffffffffffffffffffffffffffffffffffff1673ffffffffffffffffffffffffffffffffffffffff16815260200190815260200160002060006101000a81548160ff0219169083151502179055508073ffffffffffffffffffffffffffffffffffffffff167faf66545c919a3be306ee446d8f42a9558b5b022620df880517bc9593ec0f2d5260405160405180910390a250565b6107296110b0565b6107336000611137565b565b60008060009054906101000a900473ffffffffffffffffffffffffffffffffffffffff16905090565b600460003373ffffffffffffffffffffffffffffffffffffffff1673ffffffffffffffffffffffffffffffffffffffff16815260200190815260200160002060009054906101000a900460ff166107ea576040517f08c379a00000000000000000000000000000000000000000000000000000000081526004016107e190611b43565b60405180910390fd5b6000600260008481526020019081526020016000206004015403610843576040517f08c379a000000000000000000000000000000000000000000000000000000000815260040161083a90611a51565b60405180910390fd5b6000600181111561085757610856611498565b5b6002600084815260200190815260200160002060050160009054906101000a900460ff16600181111561088d5761088c611498565b5b146108cd576040517f08c379a00000000000000000000000000000000000000000000000000000000081526004016108c490611baf565b60405180910390fd5b6002600083815260200190815260200160002060030160009054906101000a900473ffffffffffffffffffffffffffffffffffffffff1673ffffffffffffffffffffffffffffffffffffffff163373ffffffffffffffffffffffffffffffffffffffff1614610971576040517f08c379a000000000000000000000000000000000000000000000000000000000815260040161096890611c41565b60405180910390fd5b60016002600084815260200190815260200160002060050160006101000a81548160ff021916908360018111156109ab576109aa611498565b5b0217905550806002600084815260200190815260200160002060060190816109d39190611e0d565b503373ffffffffffffffffffffffffffffffffffffffff16827f2bca7814b371747acbf1c3f1a94911199a2ea50108626566d35d06f816172be183604051610a1b9190611edf565b60405180910390a35050565b6000600460003373ffffffffffffffffffffffffffffffffffffffff1673ffffffffffffffffffffffffffffffffffffffff16815260200190815260200160002060009054906101000a900460ff16610ab5576040517f08c379a0000000000000000000000000000000000000000000000000000000008152600401610aac90611b43565b60405180910390fd5b600060015490506040518060e001604052808481526020018581526020018673ffffffffffffffffffffffffffffffffffffffff1681526020013373ffffffffffffffffffffffffffffffffffffffff16815260200142815260200160006001811115610b2557610b24611498565b5b815260200160405180602001604052806000815250815250600260008381526020019081526020016000206000820151816000019081610b659190611e0d565b506020820151816001019081610b7b9190611e0d565b5060408201518160020160006101000a81548173ffffffffffffffffffffffffffffffffffffffff021916908373ffffffffffffffffffffffffffffffffffffffff16021790555060608201518160030160006101000a81548173ffffffffffffffffffffffffffffffffffffffff021916908373ffffffffffffffffffffffffffffffffffffffff1602179055506080820151816004015560a08201518160050160006101000a81548160ff02191690836001811115610c3f57610c3e611498565b5b021790555060c0820151816006019081610c599190611e0d565b50905050600360008673ffffffffffffffffffffffffffffffffffffffff1673ffffffffffffffffffffffffffffffffffffffff16815260200190815260200160002081908060018154018082558091505060019003906000526020600020016000909190919091505560016000815480929190610cd690611f30565b91905055508473ffffffffffffffffffffffffffffffffffffffff163373ffffffffffffffffffffffffffffffffffffffff16827fd1de861db6c309080253d2536a1767c11ee81a3fb2ab87b4e83aa298c2bcbc8d87604051610d399190611edf565b60405180910390a4809150509392505050565b6002602052806000526040600020600091509050806000018054610d6f90611aa0565b80601f0160208091040260200160405190810160405280929190818152602001828054610d9b90611aa0565b8015610de85780601f10610dbd57610100808354040283529160200191610de8565b820191906000526020600020905b815481529060010190602001808311610dcb57829003601f168201915b505050505090806001018054610dfd90611aa0565b80601f0160208091040260200160405190810160405280929190818152602001828054610e2990611aa0565b8015610e765780601f10610e4b57610100808354040283529160200191610e76565b820191906000526020600020905b815481529060010190602001808311610e5957829003601f168201915b5050505050908060020160009054906101000a900473ffffffffffffffffffffffffffffffffffffffff16908060030160009054906101000a900473ffffffffffffffffffffffffffffffffffffffff16908060040154908060050160009054906101000a900460ff1690806006018054610ef090611aa0565b80601f0160208091040260200160405190810160405280929190818152602001828054610f1c90611aa0565b8015610f695780601f10610f3e57610100808354040283529160200191610f69565b820191906000526020600020905b815481529060010190602001808311610f4c57829003601f168201915b5050505050905087565b610f7b6110b0565b600073ffffffffffffffffffffffffffffffffffffffff168173ffffffffffffffffffffffffffffffffffffffff1603610fed5760006040517f1e4fbdf7000000000000000000000000000000000000000000000000000000008152600401610fe491906115ea565b60405180910390fd5b610ff681611137565b50565b60046020528060005260406000206000915054906101000a900460ff1681565b6060600360008373ffffffffffffffffffffffffffffffffffffffff1673ffffffffffffffffffffffffffffffffffffffff1681526020019081526020016000208054806020026020016040519081016040528092919081815260200182805480156110a457602002820191906000526020600020905b815481526020019060010190808311611090575b50505050509050919050565b6110b86111fb565b73ffffffffffffffffffffffffffffffffffffffff166110d6610735565b73ffffffffffffffffffffffffffffffffffffffff1614611135576110f96111fb565b6040517f118cdaa700000000000000000000000000000000000000000000000000000000815260040161112c91906115ea565b60405180910390fd5b565b60008060009054906101000a900473ffffffffffffffffffffffffffffffffffffffff169050816000806101000a81548173ffffffffffffffffffffffffffffffffffffffff021916908373ffffffffffffffffffffffffffffffffffffffff1602179055508173ffffffffffffffffffffffffffffffffffffffff168173ffffffffffffffffffffffffffffffffffffffff167f8be0079c531659141344cd1fd0a4f28419497f9722a3daafe3b4186f6b6457e060405160405180910390a35050565b600033905090565b6040518060e001604052806060815260200160608152602001600073ffffffffffffffffffffffffffffffffffffffff168152602001600073ffffffffffffffffffffffffffffffffffffffff168152602001600081526020016000600181111561127157611270611498565b5b8152602001606081525090565b6000604051905090565b600080fd5b600080fd5b600073ffffffffffffffffffffffffffffffffffffffff82169050919050565b60006112bd82611292565b9050919050565b6112cd816112b2565b81146112d857600080fd5b50565b6000813590506112ea816112c4565b92915050565b60006020828403121561130657611305611288565b5b6000611314848285016112db565b91505092915050565b6000819050919050565b6113308161131d565b811461133b57600080fd5b50565b60008135905061134d81611327565b92915050565b6000806040838503121561136a57611369611288565b5b6000611378858286016112db565b92505060206113898582860161133e565b9150509250929050565b61139c8161131d565b82525050565b60006020820190506113b76000830184611393565b92915050565b6000602082840312156113d3576113d2611288565b5b60006113e18482850161133e565b91505092915050565b600081519050919050565b600082825260208201905092915050565b60005b83811015611424578082015181840152602081019050611409565b60008484015250505050565b6000601f19601f8301169050919050565b600061144c826113ea565b61145681856113f5565b9350611466818560208601611406565b61146f81611430565b840191505092915050565b611483816112b2565b82525050565b6114928161131d565b82525050565b7f4e487b7100000000000000000000000000000000000000000000000000000000600052602160045260246000fd5b600281106114d8576114d7611498565b5b50565b60008190506114e9826114c7565b919050565b60006114f9826114db565b9050919050565b611509816114ee565b82525050565b600060e083016000830151848203600086015261152c8282611441565b915050602083015184820360208601526115468282611441565b915050604083015161155b604086018261147a565b50606083015161156e606086018261147a565b5060808301516115816080860182611489565b5060a083015161159460a0860182611500565b5060c083015184820360c08601526115ac8282611441565b9150508091505092915050565b600060208201905081810360008301526115d3818461150f565b905092915050565b6115e4816112b2565b82525050565b60006020820190506115ff60008301846115db565b92915050565b600080fd5b600080fd5b7f4e487b7100000000000000000000000000000000000000000000000000000000600052604160045260246000fd5b61164782611430565b810181811067ffffffffffffffff821117156116665761166561160f565b5b80604052505050565b600061167961127e565b9050611685828261163e565b919050565b600067ffffffffffffffff8211156116a5576116a461160f565b5b6116ae82611430565b9050602081019050919050565b82818337600083830152505050565b60006116dd6116d88461168a565b61166f565b9050828152602081018484840111156116f9576116f861160a565b5b6117048482856116bb565b509392505050565b600082601f83011261172157611720611605565b5b81356117318482602086016116ca565b91505092915050565b6000806040838503121561175157611750611288565b5b600061175f8582860161133e565b925050602083013567ffffffffffffffff8111156117805761177f61128d565b5b61178c8582860161170c565b9150509250929050565b6000806000606084860312156117af576117ae611288565b5b60006117bd868287016112db565b935050602084013567ffffffffffffffff8111156117de576117dd61128d565b5b6117ea8682870161170c565b925050604084013567ffffffffffffffff81111561180b5761180a61128d565b5b6118178682870161170c565b9150509250925092565b600082825260208201905092915050565b600061183d826113ea565b6118478185611821565b9350611857818560208601611406565b61186081611430565b840191505092915050565b611874816114ee565b82525050565b600060e0820190508181036000830152611894818a611832565b905081810360208301526118a88189611832565b90506118b760408301886115db565b6118c460608301876115db565b6118d16080830186611393565b6118de60a083018561186b565b81810360c08301526118f08184611832565b905098975050505050505050565b60008115159050919050565b611913816118fe565b82525050565b600060208201905061192e600083018461190a565b92915050565b600081519050919050565b600082825260208201905092915050565b6000819050602082019050919050565b600061196c8383611489565b60208301905092915050565b6000602082019050919050565b600061199082611934565b61199a818561193f565b93506119a583611950565b8060005b838110156119d65781516119bd8882611960565b97506119c883611978565b9250506001810190506119a9565b5085935050505092915050565b600060208201905081810360008301526119fd8184611985565b905092915050565b7f43726564656e7469616c20646f6573206e6f742065786973742e000000000000600082015250565b6000611a3b601a83611821565b9150611a4682611a05565b602082019050919050565b60006020820190508181036000830152611a6a81611a2e565b9050919050565b7f4e487b7100000000000000000000000000000000000000000000000000000000600052602260045260246000fd5b60006002820490506001821680611ab857607f821691505b602082108103611acb57611aca611a71565b5b50919050565b7f43616c6c6572206973206e6f7420616e20617574686f72697a6564206973737560008201527f6572000000000000000000000000000000000000000000000000000000000000602082015250565b6000611b2d602283611821565b9150611b3882611ad1565b604082019050919050565b60006020820190508181036000830152611b5c81611b20565b9050919050565b7f43726564656e7469616c20616c7265616479207265766f6b65642e0000000000600082015250565b6000611b99601b83611821565b9150611ba482611b63565b602082019050919050565b60006020820190508181036000830152611bc881611b8c565b9050919050565b7f4f6e6c7920746865206f726967696e616c206973737565722063616e2072657660008201527f6f6b6520746869732063726564656e7469616c2e000000000000000000000000602082015250565b6000611c2b603483611821565b9150611c3682611bcf565b604082019050919050565b60006020820190508181036000830152611c5a81611c1e565b9050919050565b60008190508160005260206000209050919050565b60006020601f8301049050919050565b600082821b905092915050565b600060088302611cc37fffffffffffffffffffffffffffffffffffffffffffffffffffffffffffffffff82611c86565b611ccd8683611c86565b95508019841693508086168417925050509392505050565b6000819050919050565b6000611d0a611d05611d008461131d565b611ce5565b61131d565b9050919050565b6000819050919050565b611d2483611cef565b611d38611d3082611d11565b848454611c93565b825550505050565b600090565b611d4d611d40565b611d58818484611d1b565b505050565b5b81811015611d7c57611d71600082611d45565b600181019050611d5e565b5050565b601f821115611dc157611d9281611c61565b611d9b84611c76565b81016020851015611daa578190505b611dbe611db685611c76565b830182611d5d565b50505b505050565b600082821c905092915050565b6000611de460001984600802611dc6565b1980831691505092915050565b6000611dfd8383611dd3565b9150826002028217905092915050565b611e16826113ea565b67ffffffffffffffff811115611e2f57611e2e61160f565b5b611e398254611aa0565b611e44828285611d80565b600060209050601f831160018114611e775760008415611e65578287015190505b611e6f8582611df1565b865550611ed7565b601f198416611e8586611c61565b60005b82811015611ead57848901518255600182019150602085019450602081019050611e88565b86831015611eca5784890151611ec6601f891682611dd3565b8355505b6001600288020188555050505b505050505050565b60006020820190508181036000830152611ef98184611832565b905092915050565b7f4e487b7100000000000000000000000000000000000000000000000000000000600052601160045260246000fd5b6000611f3b8261131d565b91507fffffffffffffffffffffffffffffffffffffffffffffffffffffffffffffffff8203611f6d57611f6c611f01565b5b60018201905091905056fea26469706673582212205f978ad81e2539625257932b26f4cdc2e3d2c8da7be64f329dce52451167f0c464736f6c63430008140033","opcodes":"PUSH1 0x80 PUSH1 0x40 MSTORE CALLVALUE DUP1 ISZERO PUSH3 0x11 JUMPI PUSH1 0x0 DUP1 REVERT JUMPDEST POP PUSH1 0x40 MLOAD PUSH3 0x2219 CODESIZE SUB DUP1 PUSH3 0x2219 DUP4 CODECOPY DUP2 DUP2 ADD PUSH1 0x40 MSTORE DUP2 ADD SWAP1 PUSH3 0x37 SWAP2 SWAP1 PUSH3 0x1FB JUMP JUMPDEST DUP1 PUSH1 0x0 PUSH20 0xFFFFFFFFFFFFFFFFFFFFFFFFFFFFFFFFFFFFFFFF AND DUP2 PUSH20 0xFFFFFFFFFFFFFFFFFFFFFFFFFFFFFFFFFFFFFFFF AND SUB PUSH3 0xAD JUMPI PUSH1 0x0 PUSH1 0x40 MLOAD PUSH32 0x1E4FBDF700000000000000000000000000000000000000000000000000000000 DUP2 MSTORE PUSH1 0x4 ADD PUSH3 0xA4 SWAP2 SWAP1 PUSH3 0x23E JUMP JUMPDEST PUSH1 0x40 MLOAD DUP1 SWAP2 SUB SWAP1 REVERT JUMPDEST PUSH3 0xBE DUP2 PUSH3 0xCD PUSH1 0x20 SHL PUSH1 0x20 SHR JUMP JUMPDEST POP PUSH1 0x1 DUP1 DUP2 SWAP1 SSTORE POP POP PUSH3 0x25B JUMP JUMPDEST PUSH1 0x0 DUP1 PUSH1 0x0 SWAP1 SLOAD SWAP1 PUSH2 0x100 EXP SWAP1 DIV PUSH20 0xFFFFFFFFFFFFFFFFFFFFFFFFFFFFFFFFFFFFFFFF AND SWAP1 POP DUP2 PUSH1 0x0 DUP1 PUSH2 0x100 EXP DUP2 SLOAD DUP2 PUSH20 0xFFFFFFFFFFFFFFFFFFFFFFFFFFFFFFFFFFFFFFFF MUL NOT AND SWAP1 DUP4 PUSH20 0xFFFFFFFFFFFFFFFFFFFFFFFFFFFFFFFFFFFFFFFF AND MUL OR SWAP1 SSTORE POP DUP2 PUSH20 0xFFFFFFFFFFFFFFFFFFFFFFFFFFFFFFFFFFFFFFFF AND DUP2 PUSH20 0xFFFFFFFFFFFFFFFFFFFFFFFFFFFFFFFFFFFFFFFF AND PUSH32 0x8BE0079C531659141344CD1FD0A4F28419497F9722A3DAAFE3B4186F6B6457E0 PUSH1 0x40 MLOAD PUSH1 0x40 MLOAD DUP1 SWAP2 SUB SWAP1 LOG3 POP POP JUMP JUMPDEST PUSH1 0x0 DUP1 REVERT JUMPDEST PUSH1 0x0 PUSH20 0xFFFFFFFFFFFFFFFFFFFFFFFFFFFFFFFFFFFFFFFF DUP3 AND SWAP1 POP SWAP2 SWAP1 POP JUMP JUMPDEST PUSH1 0x0 PUSH3 0x1C3 DUP3 PUSH3 0x196 JUMP JUMPDEST SWAP1 POP SWAP2 SWAP1 POP JUMP JUMPDEST PUSH3 0x1D5 DUP2 PUSH3 0x1B6 JUMP JUMPDEST DUP2 EQ PUSH3 0x1E1 JUMPI PUSH1 0x0 DUP1 REVERT JUMPDEST POP JUMP JUMPDEST PUSH1 0x0 DUP2 MLOAD SWAP1 POP PUSH3 0x1F5 DUP2 PUSH3 0x1CA JUMP JUMPDEST SWAP3 SWAP2 POP POP JUMP JUMPDEST PUSH1 0x0 PUSH1 0x20 DUP3 DUP5 SUB SLT ISZERO PUSH3 0x214 JUMPI PUSH3 0x213 PUSH3 0x191 JUMP JUMPDEST JUMPDEST PUSH1 0x0 PUSH3 0x224 DUP5 DUP3 DUP6 ADD PUSH3 0x1E4 JUMP JUMPDEST SWAP2 POP POP SWAP3 SWAP2 POP POP JUMP JUMPDEST PUSH3 0x238 DUP2 PUSH3 0x1B6 JUMP JUMPDEST DUP3 MSTORE POP POP JUMP JUMPDEST PUSH1 0x0 PUSH1 0x20 DUP3 ADD SWAP1 POP PUSH3 0x255 PUSH1 0x0 DUP4 ADD DUP5 PUSH3 0x22D JUMP JUMPDEST SWAP3 SWAP2 POP POP JUMP JUMPDEST PUSH2 0x1FAE DUP1 PUSH3 0x26B PUSH1 0x0 CODECOPY PUSH1 0x0 RETURN INVALID PUSH1 0x80 PUSH1 0x40 MSTORE CALLVALUE DUP1 ISZERO PUSH2 0x10 JUMPI PUSH1 0x0 DUP1 REVERT JUMPDEST POP PUSH1 0x4 CALLDATASIZE LT PUSH2 0xB4 JUMPI PUSH1 0x0 CALLDATALOAD PUSH1 0xE0 SHR DUP1 PUSH4 0x957A3205 GT PUSH2 0x71 JUMPI DUP1 PUSH4 0x957A3205 EQ PUSH2 0x179 JUMPI DUP1 PUSH4 0x9F4ED4FB EQ PUSH2 0x195 JUMPI DUP1 PUSH4 0xE0574E3F EQ PUSH2 0x1C5 JUMPI DUP1 PUSH4 0xF2FDE38B EQ PUSH2 0x1FB JUMPI DUP1 PUSH4 0xF731FA0F EQ PUSH2 0x217 JUMPI DUP1 PUSH4 0xFB19C3B6 EQ PUSH2 0x247 JUMPI PUSH2 0xB4 JUMP JUMPDEST DUP1 PUSH4 0x20694DB0 EQ PUSH2 0xB9 JUMPI DUP1 PUSH4 0x21B4B0E6 EQ PUSH2 0xD5 JUMPI DUP1 PUSH4 0x3EF39E2A EQ PUSH2 0x105 JUMPI DUP1 PUSH4 0x47BC7093 EQ PUSH2 0x135 JUMPI DUP1 PUSH4 0x715018A6 EQ PUSH2 0x151 JUMPI DUP1 PUSH4 0x8DA5CB5B EQ PUSH2 0x15B JUMPI JUMPDEST PUSH1 0x0 DUP1 REVERT JUMPDEST PUSH2 0xD3 PUSH1 0x4 DUP1 CALLDATASIZE SUB DUP2 ADD SWAP1 PUSH2 0xCE SWAP2 SWAP1 PUSH2 0x12F0 JUMP JUMPDEST PUSH2 0x277 JUMP JUMPDEST STOP JUMPDEST PUSH2 0xEF PUSH1 0x4 DUP1 CALLDATASIZE SUB DUP2 ADD SWAP1 PUSH2 0xEA SWAP2 SWAP1 PUSH2 0x1353 JUMP JUMPDEST PUSH2 0x31D JUMP JUMPDEST PUSH1 0x40 MLOAD PUSH2 0xFC SWAP2 SWAP1 PUSH2 0x13A2 JUMP JUMPDEST PUSH1 0x40 MLOAD DUP1 SWAP2 SUB SWAP1 RETURN JUMPDEST PUSH2 0x11F PUSH1 0x4 DUP1 CALLDATASIZE SUB DUP2 ADD SWAP1 PUSH2 0x11A SWAP2 SWAP1 PUSH2 0x13BD JUMP JUMPDEST PUSH2 0x34E JUMP JUMPDEST PUSH1 0x40 MLOAD PUSH2 0x12C SWAP2 SWAP1 PUSH2 0x15B9 JUMP JUMPDEST PUSH1 0x40 MLOAD DUP1 SWAP2 SUB SWAP1 RETURN JUMPDEST PUSH2 0x14F PUSH1 0x4 DUP1 CALLDATASIZE SUB DUP2 ADD SWAP1 PUSH2 0x14A SWAP2 SWAP1 PUSH2 0x12F0 JUMP JUMPDEST PUSH2 0x67B JUMP JUMPDEST STOP JUMPDEST PUSH2 0x159 PUSH2 0x721 JUMP JUMPDEST STOP JUMPDEST PUSH2 0x163 PUSH2 0x735 JUMP JUMPDEST PUSH1 0x40 MLOAD PUSH2 0x170 SWAP2 SWAP1 PUSH2 0x15EA JUMP JUMPDEST PUSH1 0x40 MLOAD DUP1 SWAP2 SUB SWAP1 RETURN JUMPDEST PUSH2 0x193 PUSH1 0x4 DUP1 CALLDATASIZE SUB DUP2 ADD SWAP1 PUSH2 0x18E SWAP2 SWAP1 PUSH2 0x173A JUMP JUMPDEST PUSH2 0x75E JUMP JUMPDEST STOP JUMPDEST PUSH2 0x1AF PUSH1 0x4 DUP1 CALLDATASIZE SUB DUP2 ADD SWAP1 PUSH2 0x1AA SWAP2 SWAP1 PUSH2 0x1796 JUMP JUMPDEST PUSH2 0xA27 JUMP JUMPDEST PUSH1 0x40 MLOAD PUSH2 0x1BC SWAP2 SWAP1 PUSH2 0x13A2 JUMP JUMPDEST PUSH1 0x40 MLOAD DUP1 SWAP2 SUB SWAP1 RETURN JUMPDEST PUSH2 0x1DF PUSH1 0x4 DUP1 CALLDATASIZE SUB DUP2 ADD SWAP1 PUSH2 0x1DA SWAP2 SWAP1 PUSH2 0x13BD JUMP JUMPDEST PUSH2 0xD4C JUMP JUMPDEST PUSH1 0x40 MLOAD PUSH2 0x1F2 SWAP8 SWAP7 SWAP6 SWAP5 SWAP4 SWAP3 SWAP2 SWAP1 PUSH2 0x187A JUMP JUMPDEST PUSH1 0x40 MLOAD DUP1 SWAP2 SUB SWAP1 RETURN JUMPDEST PUSH2 0x215 PUSH1 0x4 DUP1 CALLDATASIZE SUB DUP2 ADD SWAP1 PUSH2 0x210 SWAP2 SWAP1 PUSH2 0x12F0 JUMP JUMPDEST PUSH2 0xF73 JUMP JUMPDEST STOP JUMPDEST PUSH2 0x231 PUSH1 0x4 DUP1 CALLDATASIZE SUB DUP2 ADD SWAP1 PUSH2 0x22C SWAP2 SWAP1 PUSH2 0x12F0 JUMP JUMPDEST PUSH2 0xFF9 JUMP JUMPDEST PUSH1 0x40 MLOAD PUSH2 0x23E SWAP2 SWAP1 PUSH2 0x1919 JUMP JUMPDEST PUSH1 0x40 MLOAD DUP1 SWAP2 SUB SWAP1 RETURN JUMPDEST PUSH2 0x261 PUSH1 0x4 DUP1 CALLDATASIZE SUB DUP2 ADD SWAP1 PUSH2 0x25C SWAP2 SWAP1 PUSH2 0x12F0 JUMP JUMPDEST PUSH2 0x1019 JUMP JUMPDEST PUSH1 0x40 MLOAD PUSH2 0x26E SWAP2 SWAP1 PUSH2 0x19E3 JUMP JUMPDEST PUSH1 0x40 MLOAD DUP1 SWAP2 SUB SWAP1 RETURN JUMPDEST PUSH2 0x27F PUSH2 0x10B0 JUMP JUMPDEST PUSH1 0x1 PUSH1 0x4 PUSH1 0x0 DUP4 PUSH20 0xFFFFFFFFFFFFFFFFFFFFFFFFFFFFFFFFFFFFFFFF AND PUSH20 0xFFFFFFFFFFFFFFFFFFFFFFFFFFFFFFFFFFFFFFFF AND DUP2 MSTORE PUSH1 0x20 ADD SWAP1 DUP2 MSTORE PUSH1 0x20 ADD PUSH1 0x0 KECCAK256 PUSH1 0x0 PUSH2 0x100 EXP DUP2 SLOAD DUP2 PUSH1 0xFF MUL NOT AND SWAP1 DUP4 ISZERO ISZERO MUL OR SWAP1 SSTORE POP DUP1 PUSH20 0xFFFFFFFFFFFFFFFFFFFFFFFFFFFFFFFFFFFFFFFF AND PUSH32 0x5E7C881D716BEE8CB7ED92293133BA156704252439E5C502C277448F04E20C2 PUSH1 0x40 MLOAD PUSH1 0x40 MLOAD DUP1 SWAP2 SUB SWAP1 LOG2 POP JUMP JUMPDEST PUSH1 0x3 PUSH1 0x20 MSTORE DUP2 PUSH1 0x0 MSTORE PUSH1 0x40 PUSH1 0x0 KECCAK256 DUP2 DUP2 SLOAD DUP2 LT PUSH2 0x339 JUMPI PUSH1 0x0 DUP1 REVERT JUMPDEST SWAP1 PUSH1 0x0 MSTORE PUSH1 0x20 PUSH1 0x0 KECCAK256 ADD PUSH1 0x0 SWAP2 POP SWAP2 POP POP SLOAD DUP2 JUMP JUMPDEST PUSH2 0x356 PUSH2 0x1203 JUMP JUMPDEST PUSH1 0x0 PUSH1 0x2 PUSH1 0x0 DUP5 DUP2 MSTORE PUSH1 0x20 ADD SWAP1 DUP2 MSTORE PUSH1 0x20 ADD PUSH1 0x0 KECCAK256 PUSH1 0x4 ADD SLOAD SUB PUSH2 0x3AF JUMPI PUSH1 0x40 MLOAD PUSH32 0x8C379A000000000000000000000000000000000000000000000000000000000 DUP2 MSTORE PUSH1 0x4 ADD PUSH2 0x3A6 SWAP1 PUSH2 0x1A51 JUMP JUMPDEST PUSH1 0x40 MLOAD DUP1 SWAP2 SUB SWAP1 REVERT JUMPDEST PUSH1 0x2 PUSH1 0x0 DUP4 DUP2 MSTORE PUSH1 0x20 ADD SWAP1 DUP2 MSTORE PUSH1 0x20 ADD PUSH1 0x0 KECCAK256 PUSH1 0x40 MLOAD DUP1 PUSH1 0xE0 ADD PUSH1 0x40 MSTORE SWAP1 DUP2 PUSH1 0x0 DUP3 ADD DUP1 SLOAD PUSH2 0x3DD SWAP1 PUSH2 0x1AA0 JUMP JUMPDEST DUP1 PUSH1 0x1F ADD PUSH1 0x20 DUP1 SWAP2 DIV MUL PUSH1 0x20 ADD PUSH1 0x40 MLOAD SWAP1 DUP2 ADD PUSH1 0x40 MSTORE DUP1 SWAP3 SWAP2 SWAP1 DUP2 DUP2 MSTORE PUSH1 0x20 ADD DUP3 DUP1 SLOAD PUSH2 0x409 SWAP1 PUSH2 0x1AA0 JUMP JUMPDEST DUP1 ISZERO PUSH2 0x456 JUMPI DUP1 PUSH1 0x1F LT PUSH2 0x42B JUMPI PUSH2 0x100 DUP1 DUP4 SLOAD DIV MUL DUP4 MSTORE SWAP2 PUSH1 0x20 ADD SWAP2 PUSH2 0x456 JUMP JUMPDEST DUP3 ADD SWAP2 SWAP1 PUSH1 0x0 MSTORE PUSH1 0x20 PUSH1 0x0 KECCAK256 SWAP1 JUMPDEST DUP2 SLOAD DUP2 MSTORE SWAP1 PUSH1 0x1 ADD SWAP1 PUSH1 0x20 ADD DUP1 DUP4 GT PUSH2 0x439 JUMPI DUP3 SWAP1 SUB PUSH1 0x1F AND DUP3 ADD SWAP2 JUMPDEST POP POP POP POP POP DUP2 MSTORE PUSH1 0x20 ADD PUSH1 0x1 DUP3 ADD DUP1 SLOAD PUSH2 0x46F SWAP1 PUSH2 0x1AA0 JUMP JUMPDEST DUP1 PUSH1 0x1F ADD PUSH1 0x20 DUP1 SWAP2 DIV MUL PUSH1 0x20 ADD PUSH1 0x40 MLOAD SWAP1 DUP2 ADD PUSH1 0x40 MSTORE DUP1 SWAP3 SWAP2 SWAP1 DUP2 DUP2 MSTORE PUSH1 0x20 ADD DUP3 DUP1 SLOAD PUSH2 0x49B SWAP1 PUSH2 0x1AA0 JUMP JUMPDEST DUP1 ISZERO PUSH2 0x4E8 JUMPI DUP1 PUSH1 0x1F LT PUSH2 0x4BD JUMPI PUSH2 0x100 DUP1 DUP4 SLOAD DIV MUL DUP4 MSTORE SWAP2 PUSH1 0x20 ADD SWAP2 PUSH2 0x4E8 JUMP JUMPDEST DUP3 ADD SWAP2 SWAP1 PUSH1 0x0 MSTORE PUSH1 0x20 PUSH1 0x0 KECCAK256 SWAP1 JUMPDEST DUP2 SLOAD DUP2 MSTORE SWAP1 PUSH1 0x1 ADD SWAP1 PUSH1 0x20 ADD DUP1 DUP4 GT PUSH2 0x4CB JUMPI DUP3 SWAP1 SUB PUSH1 0x1F AND DUP3 ADD SWAP2 JUMPDEST POP POP POP POP POP DUP2 MSTORE PUSH1 0x20 ADD PUSH1 0x2 DUP3 ADD PUSH1 0x0 SWAP1 SLOAD SWAP1 PUSH2 0x100 EXP SWAP1 DIV PUSH20 0xFFFFFFFFFFFFFFFFFFFFFFFFFFFFFFFFFFFFFFFF AND PUSH20 0xFFFFFFFFFFFFFFFFFFFFFFFFFFFFFFFFFFFFFFFF AND PUSH20 0xFFFFFFFFFFFFFFFFFFFFFFFFFFFFFFFFFFFFFFFF AND DUP2 MSTORE PUSH1 0x20 ADD PUSH1 0x3 DUP3 ADD PUSH1 0x0 SWAP1 SLOAD SWAP1 PUSH2 0x100 EXP SWAP1 DIV PUSH20 0xFFFFFFFFFFFFFFFFFFFFFFFFFFFFFFFFFFFFFFFF AND PUSH20 0xFFFFFFFFFFFFFFFFFFFFFFFFFFFFFFFFFFFFFFFF AND PUSH20 0xFFFFFFFFFFFFFFFFFFFFFFFFFFFFFFFFFFFFFFFF AND DUP2 MSTORE PUSH1 0x20 ADD PUSH1 0x4 DUP3 ADD SLOAD DUP2 MSTORE PUSH1 0x20 ADD PUSH1 0x5 DUP3 ADD PUSH1 0x0 SWAP1 SLOAD SWAP1 PUSH2 0x100 EXP SWAP1 DIV PUSH1 0xFF AND PUSH1 0x1 DUP2 GT ISZERO PUSH2 0x5CC JUMPI PUSH2 0x5CB PUSH2 0x1498 JUMP JUMPDEST JUMPDEST PUSH1 0x1 DUP2 GT ISZERO PUSH2 0x5DE JUMPI PUSH2 0x5DD PUSH2 0x1498 JUMP JUMPDEST JUMPDEST DUP2 MSTORE PUSH1 0x20 ADD PUSH1 0x6 DUP3 ADD DUP1 SLOAD PUSH2 0x5F2 SWAP1 PUSH2 0x1AA0 JUMP JUMPDEST DUP1 PUSH1 0x1F ADD PUSH1 0x20 DUP1 SWAP2 DIV MUL PUSH1 0x20 ADD PUSH1 0x40 MLOAD SWAP1 DUP2 ADD PUSH1 0x40 MSTORE DUP1 SWAP3 SWAP2 SWAP1 DUP2 DUP2 MSTORE PUSH1 0x20 ADD DUP3 DUP1 SLOAD PUSH2 0x61E SWAP1 PUSH2 0x1AA0 JUMP JUMPDEST DUP1 ISZERO PUSH2 0x66B JUMPI DUP1 PUSH1 0x1F LT PUSH2 0x640 JUMPI PUSH2 0x100 DUP1 DUP4 SLOAD DIV MUL DUP4 MSTORE SWAP2 PUSH1 0x20 ADD SWAP2 PUSH2 0x66B JUMP JUMPDEST DUP3 ADD SWAP2 SWAP1 PUSH1 0x0 MSTORE PUSH1 0x20 PUSH1 0x0 KECCAK256 SWAP1 JUMPDEST DUP2 SLOAD DUP2 MSTORE SWAP1 PUSH1 0x1 ADD SWAP1 PUSH1 0x20 ADD DUP1 DUP4 GT PUSH2 0x64E JUMPI DUP3 SWAP1 SUB PUSH1 0x1F AND DUP3 ADD SWAP2 JUMPDEST POP POP POP POP POP DUP2 MSTORE POP POP SWAP1 POP SWAP2 SWAP1 POP JUMP JUMPDEST PUSH2 0x683 PUSH2 0x10B0 JUMP JUMPDEST PUSH1 0x0 PUSH1 0x4 PUSH1 0x0 DUP4 PUSH20 0xFFFFFFFFFFFFFFFFFFFFFFFFFFFFFFFFFFFFFFFF AND PUSH20 0xFFFFFFFFFFFFFFFFFFFFFFFFFFFFFFFFFFFFFFFF AND DUP2 MSTORE PUSH1 0x20 ADD SWAP1 DUP2 MSTORE PUSH1 0x20 ADD PUSH1 0x0 KECCAK256 PUSH1 0x0 PUSH2 0x100 EXP DUP2 SLOAD DUP2 PUSH1 0xFF MUL NOT AND SWAP1 DUP4 ISZERO ISZERO MUL OR SWAP1 SSTORE POP DUP1 PUSH20 0xFFFFFFFFFFFFFFFFFFFFFFFFFFFFFFFFFFFFFFFF AND PUSH32 0xAF66545C919A3BE306EE446D8F42A9558B5B022620DF880517BC9593EC0F2D52 PUSH1 0x40 MLOAD PUSH1 0x40 MLOAD DUP1 SWAP2 SUB SWAP1 LOG2 POP JUMP JUMPDEST PUSH2 0x729 PUSH2 0x10B0 JUMP JUMPDEST PUSH2 0x733 PUSH1 0x0 PUSH2 0x1137 JUMP JUMPDEST JUMP JUMPDEST PUSH1 0x0 DUP1 PUSH1 0x0 SWAP1 SLOAD SWAP1 PUSH2 0x100 EXP SWAP1 DIV PUSH20 0xFFFFFFFFFFFFFFFFFFFFFFFFFFFFFFFFFFFFFFFF AND SWAP1 POP SWAP1 JUMP JUMPDEST PUSH1 0x4 PUSH1 0x0 CALLER PUSH20 0xFFFFFFFFFFFFFFFFFFFFFFFFFFFFFFFFFFFFFFFF AND PUSH20 0xFFFFFFFFFFFFFFFFFFFFFFFFFFFFFFFFFFFFFFFF AND DUP2 MSTORE PUSH1 0x20 ADD SWAP1 DUP2 MSTORE PUSH1 0x20 ADD PUSH1 0x0 KECCAK256 PUSH1 0x0 SWAP1 SLOAD SWAP1 PUSH2 0x100 EXP SWAP1 DIV PUSH1 0xFF AND PUSH2 0x7EA JUMPI PUSH1 0x40 MLOAD PUSH32 0x8C379A000000000000000000000000000000000000000000000000000000000 DUP2 MSTORE PUSH1 0x4 ADD PUSH2 0x7E1 SWAP1 PUSH2 0x1B43 JUMP JUMPDEST PUSH1 0x40 MLOAD DUP1 SWAP2 SUB SWAP1 REVERT JUMPDEST PUSH1 0x0 PUSH1 0x2 PUSH1 0x0 DUP5 DUP2 MSTORE PUSH1 0x20 ADD SWAP1 DUP2 MSTORE PUSH1 0x20 ADD PUSH1 0x0 KECCAK256 PUSH1 0x4 ADD SLOAD SUB PUSH2 0x843 JUMPI PUSH1 0x40 MLOAD PUSH32 0x8C379A000000000000000000000000000000000000000000000000000000000 DUP2 MSTORE PUSH1 0x4 ADD PUSH2 0x83A SWAP1 PUSH2 0x1A51 JUMP JUMPDEST PUSH1 0x40 MLOAD DUP1 SWAP2 SUB SWAP1 REVERT JUMPDEST PUSH1 0x0 PUSH1 0x1 DUP2 GT ISZERO PUSH2 0x857 JUMPI PUSH2 0x856 PUSH2 0x1498 JUMP JUMPDEST JUMPDEST PUSH1 0x2 PUSH1 0x0 DUP5 DUP2 MSTORE PUSH1 0x20 ADD SWAP1 DUP2 MSTORE PUSH1 0x20 ADD PUSH1 0x0 KECCAK256 PUSH1 0x5 ADD PUSH1 0x0 SWAP1 SLOAD SWAP1 PUSH2 0x100 EXP SWAP1 DIV PUSH1 0xFF AND PUSH1 0x1 DUP2 GT ISZERO PUSH2 0x88D JUMPI PUSH2 0x88C PUSH2 0x1498 JUMP JUMPDEST JUMPDEST EQ PUSH2 0x8CD JUMPI PUSH1 0x40 MLOAD PUSH32 0x8C379A000000000000000000000000000000000000000000000000000000000 DUP2 MSTORE PUSH1 0x4 ADD PUSH2 0x8C4 SWAP1 PUSH2 0x1BAF JUMP JUMPDEST PUSH1 0x40 MLOAD DUP1 SWAP2 SUB SWAP1 REVERT JUMPDEST PUSH1 0x2 PUSH1 0x0 DUP4 DUP2 MSTORE PUSH1 0x20 ADD SWAP1 DUP2 MSTORE PUSH1 0x20 ADD PUSH1 0x0 KECCAK256 PUSH1 0x3 ADD PUSH1 0x0 SWAP1 SLOAD SWAP1 PUSH2 0x100 EXP SWAP1 DIV PUSH20 0xFFFFFFFFFFFFFFFFFFFFFFFFFFFFFFFFFFFFFFFF AND PUSH20 0xFFFFFFFFFFFFFFFFFFFFFFFFFFFFFFFFFFFFFFFF AND CALLER PUSH20 0xFFFFFFFFFFFFFFFFFFFFFFFFFFFFFFFFFFFFFFFF AND EQ PUSH2 0x971 JUMPI PUSH1 0x40 MLOAD PUSH32 0x8C379A000000000000000000000000000000000000000000000000000000000 DUP2 MSTORE PUSH1 0x4 ADD PUSH2 0x968 SWAP1 PUSH2 0x1C41 JUMP JUMPDEST PUSH1 0x40 MLOAD DUP1 SWAP2 SUB SWAP1 REVERT JUMPDEST PUSH1 0x1 PUSH1 0x2 PUSH1 0x0 DUP5 DUP2 MSTORE PUSH1 0x20 ADD SWAP1 DUP2 MSTORE PUSH1 0x20 ADD PUSH1 0x0 KECCAK256 PUSH1 0x5 ADD PUSH1 0x0 PUSH2 0x100 EXP DUP2 SLOAD DUP2 PUSH1 0xFF MUL NOT AND SWAP1 DUP4 PUSH1 0x1 DUP2 GT ISZERO PUSH2 0x9AB JUMPI PUSH2 0x9AA PUSH2 0x1498 JUMP JUMPDEST JUMPDEST MUL OR SWAP1 SSTORE POP DUP1 PUSH1 0x2 PUSH1 0x0 DUP5 DUP2 MSTORE PUSH1 0x20 ADD SWAP1 DUP2 MSTORE PUSH1 0x20 ADD PUSH1 0x0 KECCAK256 PUSH1 0x6 ADD SWAP1 DUP2 PUSH2 0x9D3 SWAP2 SWAP1 PUSH2 0x1E0D JUMP JUMPDEST POP CALLER PUSH20 0xFFFFFFFFFFFFFFFFFFFFFFFFFFFFFFFFFFFFFFFF AND DUP3 PUSH32 0x2BCA7814B371747ACBF1C3F1A94911199A2EA50108626566D35D06F816172BE1 DUP4 PUSH1 0x40 MLOAD PUSH2 0xA1B SWAP2 SWAP1 PUSH2 0x1EDF JUMP JUMPDEST PUSH1 0x40 MLOAD DUP1 SWAP2 SUB SWAP1 LOG3 POP POP JUMP JUMPDEST PUSH1 0x0 PUSH1 0x4 PUSH1 0x0 CALLER PUSH20 0xFFFFFFFFFFFFFFFFFFFFFFFFFFFFFFFFFFFFFFFF AND PUSH20 0xFFFFFFFFFFFFFFFFFFFFFFFFFFFFFFFFFFFFFFFF AND DUP2 MSTORE PUSH1 0x20 ADD SWAP1 DUP2 MSTORE PUSH1 0x20 ADD PUSH1 0x0 KECCAK256 PUSH1 0x0 SWAP1 SLOAD SWAP1 PUSH2 0x100 EXP SWAP1 DIV PUSH1 0xFF AND PUSH2 0xAB5 JUMPI PUSH1 0x40 MLOAD PUSH32 0x8C379A000000000000000000000000000000000000000000000000000000000 DUP2 MSTORE PUSH1 0x4 ADD PUSH2 0xAAC SWAP1 PUSH2 0x1B43 JUMP JUMPDEST PUSH1 0x40 MLOAD DUP1 SWAP2 SUB SWAP1 REVERT JUMPDEST PUSH1 0x0 PUSH1 0x1 SLOAD SWAP1 POP PUSH1 0x40 MLOAD DUP1 PUSH1 0xE0 ADD PUSH1 0x40 MSTORE DUP1 DUP5 DUP2 MSTORE PUSH1 0x20 ADD DUP6 DUP2 MSTORE PUSH1 0x20 ADD DUP7 PUSH20 0xFFFFFFFFFFFFFFFFFFFFFFFFFFFFFFFFFFFFFFFF AND DUP2 MSTORE PUSH1 0x20 ADD CALLER PUSH20 0xFFFFFFFFFFFFFFFFFFFFFFFFFFFFFFFFFFFFFFFF AND DUP2 MSTORE PUSH1 0x20 ADD TIMESTAMP DUP2 MSTORE PUSH1 0x20 ADD PUSH1 0x0 PUSH1 0x1 DUP2 GT ISZERO PUSH2 0xB25 JUMPI PUSH2 0xB24 PUSH2 0x1498 JUMP JUMPDEST JUMPDEST DUP2 MSTORE PUSH1 0x20 ADD PUSH1 0x40 MLOAD DUP1 PUSH1 0x20 ADD PUSH1 0x40 MSTORE DUP1 PUSH1 0x0 DUP2 MSTORE POP DUP2 MSTORE POP PUSH1 0x2 PUSH1 0x0 DUP4 DUP2 MSTORE PUSH1 0x20 ADD SWAP1 DUP2 MSTORE PUSH1 0x20 ADD PUSH1 0x0 KECCAK256 PUSH1 0x0 DUP3 ADD MLOAD DUP2 PUSH1 0x0 ADD SWAP1 DUP2 PUSH2 0xB65 SWAP2 SWAP1 PUSH2 0x1E0D JUMP JUMPDEST POP PUSH1 0x20 DUP3 ADD MLOAD DUP2 PUSH1 0x1 ADD SWAP1 DUP2 PUSH2 0xB7B SWAP2 SWAP1 PUSH2 0x1E0D JUMP JUMPDEST POP PUSH1 0x40 DUP3 ADD MLOAD DUP2 PUSH1 0x2 ADD PUSH1 0x0 PUSH2 0x100 EXP DUP2 SLOAD DUP2 PUSH20 0xFFFFFFFFFFFFFFFFFFFFFFFFFFFFFFFFFFFFFFFF MUL NOT AND SWAP1 DUP4 PUSH20 0xFFFFFFFFFFFFFFFFFFFFFFFFFFFFFFFFFFFFFFFF AND MUL OR SWAP1 SSTORE POP PUSH1 0x60 DUP3 ADD MLOAD DUP2 PUSH1 0x3 ADD PUSH1 0x0 PUSH2 0x100 EXP DUP2 SLOAD DUP2 PUSH20 0xFFFFFFFFFFFFFFFFFFFFFFFFFFFFFFFFFFFFFFFF MUL NOT AND SWAP1 DUP4 PUSH20 0xFFFFFFFFFFFFFFFFFFFFFFFFFFFFFFFFFFFFFFFF AND MUL OR SWAP1 SSTORE POP PUSH1 0x80 DUP3 ADD MLOAD DUP2 PUSH1 0x4 ADD SSTORE PUSH1 0xA0 DUP3 ADD MLOAD DUP2 PUSH1 0x5 ADD PUSH1 0x0 PUSH2 0x100 EXP DUP2 SLOAD DUP2 PUSH1 0xFF MUL NOT AND SWAP1 DUP4 PUSH1 0x1 DUP2 GT ISZERO PUSH2 0xC3F JUMPI PUSH2 0xC3E PUSH2 0x1498 JUMP JUMPDEST JUMPDEST MUL OR SWAP1 SSTORE POP PUSH1 0xC0 DUP3 ADD MLOAD DUP2 PUSH1 0x6 ADD SWAP1 DUP2 PUSH2 0xC59 SWAP2 SWAP1 PUSH2 0x1E0D JUMP JUMPDEST POP SWAP1 POP POP PUSH1 0x3 PUSH1 0x0 DUP7 PUSH20 0xFFFFFFFFFFFFFFFFFFFFFFFFFFFFFFFFFFFFFFFF AND PUSH20 0xFFFFFFFFFFFFFFFFFFFFFFFFFFFFFFFFFFFFFFFF AND DUP2 MSTORE PUSH1 0x20 ADD SWAP1 DUP2 MSTORE PUSH1 0x20 ADD PUSH1 0x0 KECCAK256 DUP2 SWAP1 DUP1 PUSH1 0x1 DUP2 SLOAD ADD DUP1 DUP3 SSTORE DUP1 SWAP2 POP POP PUSH1 0x1 SWAP1 SUB SWAP1 PUSH1 0x0 MSTORE PUSH1 0x20 PUSH1 0x0 KECCAK256 ADD PUSH1 0x0 SWAP1 SWAP2 SWAP1 SWAP2 SWAP1 SWAP2 POP SSTORE PUSH1 0x1 PUSH1 0x0 DUP2 SLOAD DUP1 SWAP3 SWAP2 SWAP1 PUSH2 0xCD6 SWAP1 PUSH2 0x1F30 JUMP JUMPDEST SWAP2 SWAP1 POP SSTORE POP DUP5 PUSH20 0xFFFFFFFFFFFFFFFFFFFFFFFFFFFFFFFFFFFFFFFF AND CALLER PUSH20 0xFFFFFFFFFFFFFFFFFFFFFFFFFFFFFFFFFFFFFFFF AND DUP3 PUSH32 0xD1DE861DB6C309080253D2536A1767C11EE81A3FB2AB87B4E83AA298C2BCBC8D DUP8 PUSH1 0x40 MLOAD PUSH2 0xD39 SWAP2 SWAP1 PUSH2 0x1EDF JUMP JUMPDEST PUSH1 0x40 MLOAD DUP1 SWAP2 SUB SWAP1 LOG4 DUP1 SWAP2 POP POP SWAP4 SWAP3 POP POP POP JUMP JUMPDEST PUSH1 0x2 PUSH1 0x20 MSTORE DUP1 PUSH1 0x0 MSTORE PUSH1 0x40 PUSH1 0x0 KECCAK256 PUSH1 0x0 SWAP2 POP SWAP1 POP DUP1 PUSH1 0x0 ADD DUP1 SLOAD PUSH2 0xD6F SWAP1 PUSH2 0x1AA0 JUMP JUMPDEST DUP1 PUSH1 0x1F ADD PUSH1 0x20 DUP1 SWAP2 DIV MUL PUSH1 0x20 ADD PUSH1 0x40 MLOAD SWAP1 DUP2 ADD PUSH1 0x40 MSTORE DUP1 SWAP3 SWAP2 SWAP1 DUP2 DUP2 MSTORE PUSH1 0x20 ADD DUP3 DUP1 SLOAD PUSH2 0xD9B SWAP1 PUSH2 0x1AA0 JUMP JUMPDEST DUP1 ISZERO PUSH2 0xDE8 JUMPI DUP1 PUSH1 0x1F LT PUSH2 0xDBD JUMPI PUSH2 0x100 DUP1 DUP4 SLOAD DIV MUL DUP4 MSTORE SWAP2 PUSH1 0x20 ADD SWAP2 PUSH2 0xDE8 JUMP JUMPDEST DUP3 ADD SWAP2 SWAP1 PUSH1 0x0 MSTORE PUSH1 0x20 PUSH1 0x0 KECCAK256 SWAP1 JUMPDEST DUP2 SLOAD DUP2 MSTORE SWAP1 PUSH1 0x1 ADD SWAP1 PUSH1 0x20 ADD DUP1 DUP4 GT PUSH2 0xDCB JUMPI DUP3 SWAP1 SUB PUSH1 0x1F AND DUP3 ADD SWAP2 JUMPDEST POP POP POP POP POP SWAP1 DUP1 PUSH1 0x1 ADD DUP1 SLOAD PUSH2 0xDFD SWAP1 PUSH2 0x1AA0 JUMP JUMPDEST DUP1 PUSH1 0x1F ADD PUSH1 0x20 DUP1 SWAP2 DIV MUL PUSH1 0x20 ADD PUSH1 0x40 MLOAD SWAP1 DUP2 ADD PUSH1 0x40 MSTORE DUP1 SWAP3 SWAP2 SWAP1 DUP2 DUP2 MSTORE PUSH1 0x20 ADD DUP3 DUP1 SLOAD PUSH2 0xE29 SWAP1 PUSH2 0x1AA0 JUMP JUMPDEST DUP1 ISZERO PUSH2 0xE76 JUMPI DUP1 PUSH1 0x1F LT PUSH2 0xE4B JUMPI PUSH2 0x100 DUP1 DUP4 SLOAD DIV MUL DUP4 MSTORE SWAP2 PUSH1 0x20 ADD SWAP2 PUSH2 0xE76 JUMP JUMPDEST DUP3 ADD SWAP2 SWAP1 PUSH1 0x0 MSTORE PUSH1 0x20 PUSH1 0x0 KECCAK256 SWAP1 JUMPDEST DUP2 SLOAD DUP2 MSTORE SWAP1 PUSH1 0x1 ADD SWAP1 PUSH1 0x20 ADD DUP1 DUP4 GT PUSH2 0xE59 JUMPI DUP3 SWAP1 SUB PUSH1 0x1F AND DUP3 ADD SWAP2 JUMPDEST POP POP POP POP POP SWAP1 DUP1 PUSH1 0x2 ADD PUSH1 0x0 SWAP1 SLOAD SWAP1 PUSH2 0x100 EXP SWAP1 DIV PUSH20 0xFFFFFFFFFFFFFFFFFFFFFFFFFFFFFFFFFFFFFFFF AND SWAP1 DUP1 PUSH1 0x3 ADD PUSH1 0x0 SWAP1 SLOAD SWAP1 PUSH2 0x100 EXP SWAP1 DIV PUSH20 0xFFFFFFFFFFFFFFFFFFFFFFFFFFFFFFFFFFFFFFFF AND SWAP1 DUP1 PUSH1 0x4 ADD SLOAD SWAP1 DUP1 PUSH1 0x5 ADD PUSH1 0x0 SWAP1 SLOAD SWAP1 PUSH2 0x100 EXP SWAP1 DIV PUSH1 0xFF AND SWAP1 DUP1 PUSH1 0x6 ADD DUP1 SLOAD PUSH2 0xEF0 SWAP1 PUSH2 0x1AA0 JUMP JUMPDEST DUP1 PUSH1 0x1F ADD PUSH1 0x20 DUP1 SWAP2 DIV MUL PUSH1 0x20 ADD PUSH1 0x40 MLOAD SWAP1 DUP2 ADD PUSH1 0x40 MSTORE DUP1 SWAP3 SWAP2 SWAP1 DUP2 DUP2 MSTORE PUSH1 0x20 ADD DUP3 DUP1 SLOAD PUSH2 0xF1C SWAP1 PUSH2 0x1AA0 JUMP JUMPDEST DUP1 ISZERO PUSH2 0xF69 JUMPI DUP1 PUSH1 0x1F LT PUSH2 0xF3E JUMPI PUSH2 0x100 DUP1 DUP4 SLOAD DIV MUL DUP4 MSTORE SWAP2 PUSH1 0x20 ADD SWAP2 PUSH2 0xF69 JUMP JUMPDEST DUP3 ADD SWAP2 SWAP1 PUSH1 0x0 MSTORE PUSH1 0x20 PUSH1 0x0 KECCAK256 SWAP1 JUMPDEST DUP2 SLOAD DUP2 MSTORE SWAP1 PUSH1 0x1 ADD SWAP1 PUSH1 0x20 ADD DUP1 DUP4 GT PUSH2 0xF4C JUMPI DUP3 SWAP1 SUB PUSH1 0x1F AND DUP3 ADD SWAP2 JUMPDEST POP POP POP POP POP SWAP1 POP DUP8 JUMP JUMPDEST PUSH2 0xF7B PUSH2 0x10B0 JUMP JUMPDEST PUSH1 0x0 PUSH20 0xFFFFFFFFFFFFFFFFFFFFFFFFFFFFFFFFFFFFFFFF AND DUP2 PUSH20 0xFFFFFFFFFFFFFFFFFFFFFFFFFFFFFFFFFFFFFFFF AND SUB PUSH2 0xFED JUMPI PUSH1 0x0 PUSH1 0x40 MLOAD PUSH32 0x1E4FBDF700000000000000000000000000000000000000000000000000000000 DUP2 MSTORE PUSH1 0x4 ADD PUSH2 0xFE4 SWAP2 SWAP1 PUSH2 0x15EA JUMP JUMPDEST PUSH1 0x40 MLOAD DUP1 SWAP2 SUB SWAP1 REVERT JUMPDEST PUSH2 0xFF6 DUP2 PUSH2 0x1137 JUMP JUMPDEST POP JUMP JUMPDEST PUSH1 0x4 PUSH1 0x20 MSTORE DUP1 PUSH1 0x0 MSTORE PUSH1 0x40 PUSH1 0x0 KECCAK256 PUSH1 0x0 SWAP2 POP SLOAD SWAP1 PUSH2 0x100 EXP SWAP1 DIV PUSH1 0xFF AND DUP2 JUMP JUMPDEST PUSH1 0x60 PUSH1 0x3 PUSH1 0x0 DUP4 PUSH20 0xFFFFFFFFFFFFFFFFFFFFFFFFFFFFFFFFFFFFFFFF AND PUSH20 0xFFFFFFFFFFFFFFFFFFFFFFFFFFFFFFFFFFFFFFFF AND DUP2 MSTORE PUSH1 0x20 ADD SWAP1 DUP2 MSTORE PUSH1 0x20 ADD PUSH1 0x0 KECCAK256 DUP1 SLOAD DUP1 PUSH1 0x20 MUL PUSH1 0x20 ADD PUSH1 0x40 MLOAD SWAP1 DUP2 ADD PUSH1 0x40 MSTORE DUP1 SWAP3 SWAP2 SWAP1 DUP2 DUP2 MSTORE PUSH1 0x20 ADD DUP3 DUP1 SLOAD DUP1 ISZERO PUSH2 0x10A4 JUMPI PUSH1 0x20 MUL DUP3 ADD SWAP2 SWAP1 PUSH1 0x0 MSTORE PUSH1 0x20 PUSH1 0x0 KECCAK256 SWAP1 JUMPDEST DUP2 SLOAD DUP2 MSTORE PUSH1 0x20 ADD SWAP1 PUSH1 0x1 ADD SWAP1 DUP1 DUP4 GT PUSH2 0x1090 JUMPI JUMPDEST POP POP POP POP POP SWAP1 POP SWAP2 SWAP1 POP JUMP JUMPDEST PUSH2 0x10B8 PUSH2 0x11FB JUMP JUMPDEST PUSH20 0xFFFFFFFFFFFFFFFFFFFFFFFFFFFFFFFFFFFFFFFF AND PUSH2 0x10D6 PUSH2 0x735 JUMP JUMPDEST PUSH20 0xFFFFFFFFFFFFFFFFFFFFFFFFFFFFFFFFFFFFFFFF AND EQ PUSH2 0x1135 JUMPI PUSH2 0x10F9 PUSH2 0x11FB JUMP JUMPDEST PUSH1 0x40 MLOAD PUSH32 0x118CDAA700000000000000000000000000000000000000000000000000000000 DUP2 MSTORE PUSH1 0x4 ADD PUSH2 0x112C SWAP2 SWAP1 PUSH2 0x15EA JUMP JUMPDEST PUSH1 0x40 MLOAD DUP1 SWAP2 SUB SWAP1 REVERT JUMPDEST JUMP JUMPDEST PUSH1 0x0 DUP1 PUSH1 0x0 SWAP1 SLOAD SWAP1 PUSH2 0x100 EXP SWAP1 DIV PUSH20 0xFFFFFFFFFFFFFFFFFFFFFFFFFFFFFFFFFFFFFFFF AND SWAP1 POP DUP2 PUSH1 0x0 DUP1 PUSH2 0x100 EXP DUP2 SLOAD DUP2 PUSH20 0xFFFFFFFFFFFFFFFFFFFFFFFFFFFFFFFFFFFFFFFF MUL NOT AND SWAP1 DUP4 PUSH20 0xFFFFFFFFFFFFFFFFFFFFFFFFFFFFFFFFFFFFFFFF AND MUL OR SWAP1 SSTORE POP DUP2 PUSH20 0xFFFFFFFFFFFFFFFFFFFFFFFFFFFFFFFFFFFFFFFF AND DUP2 PUSH20 0xFFFFFFFFFFFFFFFFFFFFFFFFFFFFFFFFFFFFFFFF AND PUSH32 0x8BE0079C531659141344CD1FD0A4F28419497F9722A3DAAFE3B4186F6B6457E0 PUSH1 0x40 MLOAD PUSH1 0x40 MLOAD DUP1 SWAP2 SUB SWAP1 LOG3 POP POP JUMP JUMPDEST PUSH1 0x0 CALLER SWAP1 POP SWAP1 JUMP JUMPDEST PUSH1 0x40 MLOAD DUP1 PUSH1 0xE0 ADD PUSH1 0x40 MSTORE DUP1 PUSH1 0x60 DUP2 MSTORE PUSH1 0x20 ADD PUSH1 0x60 DUP2 MSTORE PUSH1 0x20 ADD PUSH1 0x0 PUSH20 0xFFFFFFFFFFFFFFFFFFFFFFFFFFFFFFFFFFFFFFFF AND DUP2 MSTORE PUSH1 0x20 ADD PUSH1 0x0 PUSH20 0xFFFFFFFFFFFFFFFFFFFFFFFFFFFFFFFFFFFFFFFF AND DUP2 MSTORE PUSH1 0x20 ADD PUSH1 0x0 DUP2 MSTORE PUSH1 0x20 ADD PUSH1 0x0 PUSH1 0x1 DUP2 GT ISZERO PUSH2 0x1271 JUMPI PUSH2 0x1270 PUSH2 0x1498 JUMP JUMPDEST JUMPDEST DUP2 MSTORE PUSH1 0x20 ADD PUSH1 0x60 DUP2 MSTORE POP SWAP1 JUMP JUMPDEST PUSH1 0x0 PUSH1 0x40 MLOAD SWAP1 POP SWAP1 JUMP JUMPDEST PUSH1 0x0 DUP1 REVERT JUMPDEST PUSH1 0x0 DUP1 REVERT JUMPDEST PUSH1 0x0 PUSH20 0xFFFFFFFFFFFFFFFFFFFFFFFFFFFFFFFFFFFFFFFF DUP3 AND SWAP1 POP SWAP2 SWAP1 POP JUMP JUMPDEST PUSH1 0x0 PUSH2 0x12BD DUP3 PUSH2 0x1292 JUMP JUMPDEST SWAP1 POP SWAP2 SWAP1 POP JUMP JUMPDEST PUSH2 0x12CD DUP2 PUSH2 0x12B2 JUMP JUMPDEST DUP2 EQ PUSH2 0x12D8 JUMPI PUSH1 0x0 DUP1 REVERT JUMPDEST POP JUMP JUMPDEST PUSH1 0x0 DUP2 CALLDATALOAD SWAP1 POP PUSH2 0x12EA DUP2 PUSH2 0x12C4 JUMP JUMPDEST SWAP3 SWAP2 POP POP JUMP JUMPDEST PUSH1 0x0 PUSH1 0x20 DUP3 DUP5 SUB SLT ISZERO PUSH2 0x1306 JUMPI PUSH2 0x1305 PUSH2 0x1288 JUMP JUMPDEST JUMPDEST PUSH1 0x0 PUSH2 0x1314 DUP5 DUP3 DUP6 ADD PUSH2 0x12DB JUMP JUMPDEST SWAP2 POP POP SWAP3 SWAP2 POP POP JUMP JUMPDEST PUSH1 0x0 DUP2 SWAP1 POP SWAP2 SWAP1 POP JUMP JUMPDEST PUSH2 0x1330 DUP2 PUSH2 0x131D JUMP JUMPDEST DUP2 EQ PUSH2 0x133B JUMPI PUSH1 0x0 DUP1 REVERT JUMPDEST POP JUMP JUMPDEST PUSH1 0x0 DUP2 CALLDATALOAD SWAP1 POP PUSH2 0x134D DUP2 PUSH2 0x1327 JUMP JUMPDEST SWAP3 SWAP2 POP POP JUMP JUMPDEST PUSH1 0x0 DUP1 PUSH1 0x40 DUP4 DUP6 SUB SLT ISZERO PUSH2 0x136A JUMPI PUSH2 0x1369 PUSH2 0x1288 JUMP JUMPDEST JUMPDEST PUSH1 0x0 PUSH2 0x1378 DUP6 DUP3 DUP7 ADD PUSH2 0x12DB JUMP JUMPDEST SWAP3 POP POP PUSH1 0x20 PUSH2 0x1389 DUP6 DUP3 DUP7 ADD PUSH2 0x133E JUMP JUMPDEST SWAP2 POP POP SWAP3 POP SWAP3 SWAP1 POP JUMP JUMPDEST PUSH2 0x139C DUP2 PUSH2 0x131D JUMP JUMPDEST DUP3 MSTORE POP POP JUMP JUMPDEST PUSH1 0x0 PUSH1 0x20 DUP3 ADD SWAP1 POP PUSH2 0x13B7 PUSH1 0x0 DUP4 ADD DUP5 PUSH2 0x1393 JUMP JUMPDEST SWAP3 SWAP2 POP POP JUMP JUMPDEST PUSH1 0x0 PUSH1 0x20 DUP3 DUP5 SUB SLT ISZERO PUSH2 0x13D3 JUMPI PUSH2 0x13D2 PUSH2 0x1288 JUMP JUMPDEST JUMPDEST PUSH1 0x0 PUSH2 0x13E1 DUP5 DUP3 DUP6 ADD PUSH2 0x133E JUMP JUMPDEST SWAP2 POP POP SWAP3 SWAP2 POP POP JUMP JUMPDEST PUSH1 0x0 DUP2 MLOAD SWAP1 POP SWAP2 SWAP1 POP JUMP JUMPDEST PUSH1 0x0 DUP3 DUP3 MSTORE PUSH1 0x20 DUP3 ADD SWAP1 POP SWAP3 SWAP2 POP POP JUMP JUMPDEST PUSH1 0x0 JUMPDEST DUP4 DUP2 LT ISZERO PUSH2 0x1424 JUMPI DUP1 DUP3 ADD MLOAD DUP2 DUP5 ADD MSTORE PUSH1 0x20 DUP2 ADD SWAP1 POP PUSH2 0x1409 JUMP JUMPDEST PUSH1 0x0 DUP5 DUP5 ADD MSTORE POP POP POP POP JUMP JUMPDEST PUSH1 0x0 PUSH1 0x1F NOT PUSH1 0x1F DUP4 ADD AND SWAP1 POP SWAP2 SWAP1 POP JUMP JUMPDEST PUSH1 0x0 PUSH2 0x144C DUP3 PUSH2 0x13EA JUMP JUMPDEST PUSH2 0x1456 DUP2 DUP6 PUSH2 0x13F5 JUMP JUMPDEST SWAP4 POP PUSH2 0x1466 DUP2 DUP6 PUSH1 0x20 DUP7 ADD PUSH2 0x1406 JUMP JUMPDEST PUSH2 0x146F DUP2 PUSH2 0x1430 JUMP JUMPDEST DUP5 ADD SWAP2 POP POP SWAP3 SWAP2 POP POP JUMP JUMPDEST PUSH2 0x1483 DUP2 PUSH2 0x12B2 JUMP JUMPDEST DUP3 MSTORE POP POP JUMP JUMPDEST PUSH2 0x1492 DUP2 PUSH2 0x131D JUMP JUMPDEST DUP3 MSTORE POP POP JUMP JUMPDEST PUSH32 0x4E487B7100000000000000000000000000000000000000000000000000000000 PUSH1 0x0 MSTORE PUSH1 0x21 PUSH1 0x4 MSTORE PUSH1 0x24 PUSH1 0x0 REVERT JUMPDEST PUSH1 0x2 DUP2 LT PUSH2 0x14D8 JUMPI PUSH2 0x14D7 PUSH2 0x1498 JUMP JUMPDEST JUMPDEST POP JUMP JUMPDEST PUSH1 0x0 DUP2 SWAP1 POP PUSH2 0x14E9 DUP3 PUSH2 0x14C7 JUMP JUMPDEST SWAP2 SWAP1 POP JUMP JUMPDEST PUSH1 0x0 PUSH2 0x14F9 DUP3 PUSH2 0x14DB JUMP JUMPDEST SWAP1 POP SWAP2 SWAP1 POP JUMP JUMPDEST PUSH2 0x1509 DUP2 PUSH2 0x14EE JUMP JUMPDEST DUP3 MSTORE POP POP JUMP JUMPDEST PUSH1 0x0 PUSH1 0xE0 DUP4 ADD PUSH1 0x0 DUP4 ADD MLOAD DUP5 DUP3 SUB PUSH1 0x0 DUP7 ADD MSTORE PUSH2 0x152C DUP3 DUP3 PUSH2 0x1441 JUMP JUMPDEST SWAP2 POP POP PUSH1 0x20 DUP4 ADD MLOAD DUP5 DUP3 SUB PUSH1 0x20 DUP7 ADD MSTORE PUSH2 0x1546 DUP3 DUP3 PUSH2 0x1441 JUMP JUMPDEST SWAP2 POP POP PUSH1 0x40 DUP4 ADD MLOAD PUSH2 0x155B PUSH1 0x40 DUP7 ADD DUP3 PUSH2 0x147A JUMP JUMPDEST POP PUSH1 0x60 DUP4 ADD MLOAD PUSH2 0x156E PUSH1 0x60 DUP7 ADD DUP3 PUSH2 0x147A JUMP JUMPDEST POP PUSH1 0x80 DUP4 ADD MLOAD PUSH2 0x1581 PUSH1 0x80 DUP7 ADD DUP3 PUSH2 0x1489 JUMP JUMPDEST POP PUSH1 0xA0 DUP4 ADD MLOAD PUSH2 0x1594 PUSH1 0xA0 DUP7 ADD DUP3 PUSH2 0x1500 JUMP JUMPDEST POP PUSH1 0xC0 DUP4 ADD MLOAD DUP5 DUP3 SUB PUSH1 0xC0 DUP7 ADD MSTORE PUSH2 0x15AC DUP3 DUP3 PUSH2 0x1441 JUMP JUMPDEST SWAP2 POP POP DUP1 SWAP2 POP POP SWAP3 SWAP2 POP POP JUMP JUMPDEST PUSH1 0x0 PUSH1 0x20 DUP3 ADD SWAP1 POP DUP2 DUP2 SUB PUSH1 0x0 DUP4 ADD MSTORE PUSH2 0x15D3 DUP2 DUP5 PUSH2 0x150F JUMP JUMPDEST SWAP1 POP SWAP3 SWAP2 POP POP JUMP JUMPDEST PUSH2 0x15E4 DUP2 PUSH2 0x12B2 JUMP JUMPDEST DUP3 MSTORE POP POP JUMP JUMPDEST PUSH1 0x0 PUSH1 0x20 DUP3 ADD SWAP1 POP PUSH2 0x15FF PUSH1 0x0 DUP4 ADD DUP5 PUSH2 0x15DB JUMP JUMPDEST SWAP3 SWAP2 POP POP JUMP JUMPDEST PUSH1 0x0 DUP1 REVERT JUMPDEST PUSH1 0x0 DUP1 REVERT JUMPDEST PUSH32 0x4E487B7100000000000000000000000000000000000000000000000000000000 PUSH1 0x0 MSTORE PUSH1 0x41 PUSH1 0x4 MSTORE PUSH1 0x24 PUSH1 0x0 REVERT JUMPDEST PUSH2 0x1647 DUP3 PUSH2 0x1430 JUMP JUMPDEST DUP2 ADD DUP2 DUP2 LT PUSH8 0xFFFFFFFFFFFFFFFF DUP3 GT OR ISZERO PUSH2 0x1666 JUMPI PUSH2 0x1665 PUSH2 0x160F JUMP JUMPDEST JUMPDEST DUP1 PUSH1 0x40 MSTORE POP POP POP JUMP JUMPDEST PUSH1 0x0 PUSH2 0x1679 PUSH2 0x127E JUMP JUMPDEST SWAP1 POP PUSH2 0x1685 DUP3 DUP3 PUSH2 0x163E JUMP JUMPDEST SWAP2 SWAP1 POP JUMP JUMPDEST PUSH1 0x0 PUSH8 0xFFFFFFFFFFFFFFFF DUP3 GT ISZERO PUSH2 0x16A5 JUMPI PUSH2 0x16A4 PUSH2 0x160F JUMP JUMPDEST JUMPDEST PUSH2 0x16AE DUP3 PUSH2 0x1430 JUMP JUMPDEST SWAP1 POP PUSH1 0x20 DUP2 ADD SWAP1 POP SWAP2 SWAP1 POP JUMP JUMPDEST DUP3 DUP2 DUP4 CALLDATACOPY PUSH1 0x0 DUP4 DUP4 ADD MSTORE POP POP POP JUMP JUMPDEST PUSH1 0x0 PUSH2 0x16DD PUSH2 0x16D8 DUP5 PUSH2 0x168A JUMP JUMPDEST PUSH2 0x166F JUMP JUMPDEST SWAP1 POP DUP3 DUP2 MSTORE PUSH1 0x20 DUP2 ADD DUP5 DUP5 DUP5 ADD GT ISZERO PUSH2 0x16F9 JUMPI PUSH2 0x16F8 PUSH2 0x160A JUMP JUMPDEST JUMPDEST PUSH2 0x1704 DUP5 DUP3 DUP6 PUSH2 0x16BB JUMP JUMPDEST POP SWAP4 SWAP3 POP POP POP JUMP JUMPDEST PUSH1 0x0 DUP3 PUSH1 0x1F DUP4 ADD SLT PUSH2 0x1721 JUMPI PUSH2 0x1720 PUSH2 0x1605 JUMP JUMPDEST JUMPDEST DUP2 CALLDATALOAD PUSH2 0x1731 DUP5 DUP3 PUSH1 0x20 DUP7 ADD PUSH2 0x16CA JUMP JUMPDEST SWAP2 POP POP SWAP3 SWAP2 POP POP JUMP JUMPDEST PUSH1 0x0 DUP1 PUSH1 0x40 DUP4 DUP6 SUB SLT ISZERO PUSH2 0x1751 JUMPI PUSH2 0x1750 PUSH2 0x1288 JUMP JUMPDEST JUMPDEST PUSH1 0x0 PUSH2 0x175F DUP6 DUP3 DUP7 ADD PUSH2 0x133E JUMP JUMPDEST SWAP3 POP POP PUSH1 0x20 DUP4 ADD CALLDATALOAD PUSH8 0xFFFFFFFFFFFFFFFF DUP2 GT ISZERO PUSH2 0x1780 JUMPI PUSH2 0x177F PUSH2 0x128D JUMP JUMPDEST JUMPDEST PUSH2 0x178C DUP6 DUP3 DUP7 ADD PUSH2 0x170C JUMP JUMPDEST SWAP2 POP POP SWAP3 POP SWAP3 SWAP1 POP JUMP JUMPDEST PUSH1 0x0 DUP1 PUSH1 0x0 PUSH1 0x60 DUP5 DUP7 SUB SLT ISZERO PUSH2 0x17AF JUMPI PUSH2 0x17AE PUSH2 0x1288 JUMP JUMPDEST JUMPDEST PUSH1 0x0 PUSH2 0x17BD DUP7 DUP3 DUP8 ADD PUSH2 0x12DB JUMP JUMPDEST SWAP4 POP POP PUSH1 0x20 DUP5 ADD CALLDATALOAD PUSH8 0xFFFFFFFFFFFFFFFF DUP2 GT ISZERO PUSH2 0x17DE JUMPI PUSH2 0x17DD PUSH2 0x128D JUMP JUMPDEST JUMPDEST PUSH2 0x17EA DUP7 DUP3 DUP8 ADD PUSH2 0x170C JUMP JUMPDEST SWAP3 POP POP PUSH1 0x40 DUP5 ADD CALLDATALOAD PUSH8 0xFFFFFFFFFFFFFFFF DUP2 GT ISZERO PUSH2 0x180B JUMPI PUSH2 0x180A PUSH2 0x128D JUMP JUMPDEST JUMPDEST PUSH2 0x1817 DUP7 DUP3 DUP8 ADD PUSH2 0x170C JUMP JUMPDEST SWAP2 POP POP SWAP3 POP SWAP3 POP SWAP3 JUMP JUMPDEST PUSH1 0x0 DUP3 DUP3 MSTORE PUSH1 0x20 DUP3 ADD SWAP1 POP SWAP3 SWAP2 POP POP JUMP JUMPDEST PUSH1 0x0 PUSH2 0x183D DUP3 PUSH2 0x13EA JUMP JUMPDEST PUSH2 0x1847 DUP2 DUP6 PUSH2 0x1821 JUMP JUMPDEST SWAP4 POP PUSH2 0x1857 DUP2 DUP6 PUSH1 0x20 DUP7 ADD PUSH2 0x1406 JUMP JUMPDEST PUSH2 0x1860 DUP2 PUSH2 0x1430 JUMP JUMPDEST DUP5 ADD SWAP2 POP POP SWAP3 SWAP2 POP POP JUMP JUMPDEST PUSH2 0x1874 DUP2 PUSH2 0x14EE JUMP JUMPDEST DUP3 MSTORE POP POP JUMP JUMPDEST PUSH1 0x0 PUSH1 0xE0 DUP3 ADD SWAP1 POP DUP2 DUP2 SUB PUSH1 0x0 DUP4 ADD MSTORE PUSH2 0x1894 DUP2 DUP11 PUSH2 0x1832 JUMP JUMPDEST SWAP1 POP DUP2 DUP2 SUB PUSH1 0x20 DUP4 ADD MSTORE PUSH2 0x18A8 DUP2 DUP10 PUSH2 0x1832 JUMP JUMPDEST SWAP1 POP PUSH2 0x18B7 PUSH1 0x40 DUP4 ADD DUP9 PUSH2 0x15DB JUMP JUMPDEST PUSH2 0x18C4 PUSH1 0x60 DUP4 ADD DUP8 PUSH2 0x15DB JUMP JUMPDEST PUSH2 0x18D1 PUSH1 0x80 DUP4 ADD DUP7 PUSH2 0x1393 JUMP JUMPDEST PUSH2 0x18DE PUSH1 0xA0 DUP4 ADD DUP6 PUSH2 0x186B JUMP JUMPDEST DUP2 DUP2 SUB PUSH1 0xC0 DUP4 ADD MSTORE PUSH2 0x18F0 DUP2 DUP5 PUSH2 0x1832 JUMP JUMPDEST SWAP1 POP SWAP9 SWAP8 POP POP POP POP POP POP POP POP JUMP JUMPDEST PUSH1 0x0 DUP2 ISZERO ISZERO SWAP1 POP SWAP2 SWAP1 POP JUMP JUMPDEST PUSH2 0x1913 DUP2 PUSH2 0x18FE JUMP JUMPDEST DUP3 MSTORE POP POP JUMP JUMPDEST PUSH1 0x0 PUSH1 0x20 DUP3 ADD SWAP1 POP PUSH2 0x192E PUSH1 0x0 DUP4 ADD DUP5 PUSH2 0x190A JUMP JUMPDEST SWAP3 SWAP2 POP POP JUMP JUMPDEST PUSH1 0x0 DUP2 MLOAD SWAP1 POP SWAP2 SWAP1 POP JUMP JUMPDEST PUSH1 0x0 DUP3 DUP3 MSTORE PUSH1 0x20 DUP3 ADD SWAP1 POP SWAP3 SWAP2 POP POP JUMP JUMPDEST PUSH1 0x0 DUP2 SWAP1 POP PUSH1 0x20 DUP3 ADD SWAP1 POP SWAP2 SWAP1 POP JUMP JUMPDEST PUSH1 0x0 PUSH2 0x196C DUP4 DUP4 PUSH2 0x1489 JUMP JUMPDEST PUSH1 0x20 DUP4 ADD SWAP1 POP SWAP3 SWAP2 POP POP JUMP JUMPDEST PUSH1 0x0 PUSH1 0x20 DUP3 ADD SWAP1 POP SWAP2 SWAP1 POP JUMP JUMPDEST PUSH1 0x0 PUSH2 0x1990 DUP3 PUSH2 0x1934 JUMP JUMPDEST PUSH2 0x199A DUP2 DUP6 PUSH2 0x193F JUMP JUMPDEST SWAP4 POP PUSH2 0x19A5 DUP4 PUSH2 0x1950 JUMP JUMPDEST DUP1 PUSH1 0x0 JUMPDEST DUP4 DUP2 LT ISZERO PUSH2 0x19D6 JUMPI DUP2 MLOAD PUSH2 0x19BD DUP9 DUP3 PUSH2 0x1960 JUMP JUMPDEST SWAP8 POP PUSH2 0x19C8 DUP4 PUSH2 0x1978 JUMP JUMPDEST SWAP3 POP POP PUSH1 0x1 DUP2 ADD SWAP1 POP PUSH2 0x19A9 JUMP JUMPDEST POP DUP6 SWAP4 POP POP POP POP SWAP3 SWAP2 POP POP JUMP JUMPDEST PUSH1 0x0 PUSH1 0x20 DUP3 ADD SWAP1 POP DUP2 DUP2 SUB PUSH1 0x0 DUP4 ADD MSTORE PUSH2 0x19FD DUP2 DUP5 PUSH2 0x1985 JUMP JUMPDEST SWAP1 POP SWAP3 SWAP2 POP POP JUMP JUMPDEST PUSH32 0x43726564656E7469616C20646F6573206E6F742065786973742E000000000000 PUSH1 0x0 DUP3 ADD MSTORE POP JUMP JUMPDEST PUSH1 0x0 PUSH2 0x1A3B PUSH1 0x1A DUP4 PUSH2 0x1821 JUMP JUMPDEST SWAP2 POP PUSH2 0x1A46 DUP3 PUSH2 0x1A05 JUMP JUMPDEST PUSH1 0x20 DUP3 ADD SWAP1 POP SWAP2 SWAP1 POP JUMP JUMPDEST PUSH1 0x0 PUSH1 0x20 DUP3 ADD SWAP1 POP DUP2 DUP2 SUB PUSH1 0x0 DUP4 ADD MSTORE PUSH2 0x1A6A DUP2 PUSH2 0x1A2E JUMP JUMPDEST SWAP1 POP SWAP2 SWAP1 POP JUMP JUMPDEST PUSH32 0x4E487B7100000000000000000000000000000000000000000000000000000000 PUSH1 0x0 MSTORE PUSH1 0x22 PUSH1 0x4 MSTORE PUSH1 0x24 PUSH1 0x0 REVERT JUMPDEST PUSH1 0x0 PUSH1 0x2 DUP3 DIV SWAP1 POP PUSH1 0x1 DUP3 AND DUP1 PUSH2 0x1AB8 JUMPI PUSH1 0x7F DUP3 AND SWAP2 POP JUMPDEST PUSH1 0x20 DUP3 LT DUP2 SUB PUSH2 0x1ACB JUMPI PUSH2 0x1ACA PUSH2 0x1A71 JUMP JUMPDEST JUMPDEST POP SWAP2 SWAP1 POP JUMP JUMPDEST PUSH32 0x43616C6C6572206973206E6F7420616E20617574686F72697A65642069737375 PUSH1 0x0 DUP3 ADD MSTORE PUSH32 0x6572000000000000000000000000000000000000000000000000000000000000 PUSH1 0x20 DUP3 ADD MSTORE POP JUMP JUMPDEST PUSH1 0x0 PUSH2 0x1B2D PUSH1 0x22 DUP4 PUSH2 0x1821 JUMP JUMPDEST SWAP2 POP PUSH2 0x1B38 DUP3 PUSH2 0x1AD1 JUMP JUMPDEST PUSH1 0x40 DUP3 ADD SWAP1 POP SWAP2 SWAP1 POP JUMP JUMPDEST PUSH1 0x0 PUSH1 0x20 DUP3 ADD SWAP1 POP DUP2 DUP2 SUB PUSH1 0x0 DUP4 ADD MSTORE PUSH2 0x1B5C DUP2 PUSH2 0x1B20 JUMP JUMPDEST SWAP1 POP SWAP2 SWAP1 POP JUMP JUMPDEST PUSH32 0x43726564656E7469616C20616C7265616479207265766F6B65642E0000000000 PUSH1 0x0 DUP3 ADD MSTORE POP JUMP JUMPDEST PUSH1 0x0 PUSH2 0x1B99 PUSH1 0x1B DUP4 PUSH2 0x1821 JUMP JUMPDEST SWAP2 POP PUSH2 0x1BA4 DUP3 PUSH2 0x1B63 JUMP JUMPDEST PUSH1 0x20 DUP3 ADD SWAP1 POP SWAP2 SWAP1 POP JUMP JUMPDEST PUSH1 0x0 PUSH1 0x20 DUP3 ADD SWAP1 POP DUP2 DUP2 SUB PUSH1 0x0 DUP4 ADD MSTORE PUSH2 0x1BC8 DUP2 PUSH2 0x1B8C JUMP JUMPDEST SWAP1 POP SWAP2 SWAP1 POP JUMP JUMPDEST PUSH32 0x4F6E6C7920746865206F726967696E616C206973737565722063616E20726576 PUSH1 0x0 DUP3 ADD MSTORE PUSH32 0x6F6B6520746869732063726564656E7469616C2E000000000000000000000000 PUSH1 0x20 DUP3 ADD MSTORE POP JUMP JUMPDEST PUSH1 0x0 PUSH2 0x1C2B PUSH1 0x34 DUP4 PUSH2 0x1821 JUMP JUMPDEST SWAP2 POP PUSH2 0x1C36 DUP3 PUSH2 0x1BCF JUMP JUMPDEST PUSH1 0x40 DUP3 ADD SWAP1 POP SWAP2 SWAP1 POP JUMP JUMPDEST PUSH1 0x0 PUSH1 0x20 DUP3 ADD SWAP1 POP DUP2 DUP2 SUB PUSH1 0x0 DUP4 ADD MSTORE PUSH2 0x1C5A DUP2 PUSH2 0x1C1E JUMP JUMPDEST SWAP1 POP SWAP2 SWAP1 POP JUMP JUMPDEST PUSH1 0x0 DUP2 SWAP1 POP DUP2 PUSH1 0x0 MSTORE PUSH1 0x20 PUSH1 0x0 KECCAK256 SWAP1 POP SWAP2 SWAP1 POP JUMP JUMPDEST PUSH1 0x0 PUSH1 0x20 PUSH1 0x1F DUP4 ADD DIV SWAP1 POP SWAP2 SWAP1 POP JUMP JUMPDEST PUSH1 0x0 DUP3 DUP3 SHL SWAP1 POP SWAP3 SWAP2 POP POP JUMP JUMPDEST PUSH1 0x0 PUSH1 0x8 DUP4 MUL PUSH2 0x1CC3 PUSH32 0xFFFFFFFFFFFFFFFFFFFFFFFFFFFFFFFFFFFFFFFFFFFFFFFFFFFFFFFFFFFFFFFF DUP3 PUSH2 0x1C86 JUMP JUMPDEST PUSH2 0x1CCD DUP7 DUP4 PUSH2 0x1C86 JUMP JUMPDEST SWAP6 POP DUP1 NOT DUP5 AND SWAP4 POP DUP1 DUP7 AND DUP5 OR SWAP3 POP POP POP SWAP4 SWAP3 POP POP POP JUMP JUMPDEST PUSH1 0x0 DUP2 SWAP1 POP SWAP2 SWAP1 POP JUMP JUMPDEST PUSH1 0x0 PUSH2 0x1D0A PUSH2 0x1D05 PUSH2 0x1D00 DUP5 PUSH2 0x131D JUMP JUMPDEST PUSH2 0x1CE5 JUMP JUMPDEST PUSH2 0x131D JUMP JUMPDEST SWAP1 POP SWAP2 SWAP1 POP JUMP JUMPDEST PUSH1 0x0 DUP2 SWAP1 POP SWAP2 SWAP1 POP JUMP JUMPDEST PUSH2 0x1D24 DUP4 PUSH2 0x1CEF JUMP JUMPDEST PUSH2 0x1D38 PUSH2 0x1D30 DUP3 PUSH2 0x1D11 JUMP JUMPDEST DUP5 DUP5 SLOAD PUSH2 0x1C93 JUMP JUMPDEST DUP3 SSTORE POP POP POP POP JUMP JUMPDEST PUSH1 0x0 SWAP1 JUMP JUMPDEST PUSH2 0x1D4D PUSH2 0x1D40 JUMP JUMPDEST PUSH2 0x1D58 DUP2 DUP5 DUP5 PUSH2 0x1D1B JUMP JUMPDEST POP POP POP JUMP JUMPDEST JUMPDEST DUP2 DUP2 LT ISZERO PUSH2 0x1D7C JUMPI PUSH2 0x1D71 PUSH1 0x0 DUP3 PUSH2 0x1D45 JUMP JUMPDEST PUSH1 0x1 DUP2 ADD SWAP1 POP PUSH2 0x1D5E JUMP JUMPDEST POP POP JUMP JUMPDEST PUSH1 0x1F DUP3 GT ISZERO PUSH2 0x1DC1 JUMPI PUSH2 0x1D92 DUP2 PUSH2 0x1C61 JUMP JUMPDEST PUSH2 0x1D9B DUP5 PUSH2 0x1C76 JUMP JUMPDEST DUP2 ADD PUSH1 0x20 DUP6 LT ISZERO PUSH2 0x1DAA JUMPI DUP2 SWAP1 POP JUMPDEST PUSH2 0x1DBE PUSH2 0x1DB6 DUP6 PUSH2 0x1C76 JUMP JUMPDEST DUP4 ADD DUP3 PUSH2 0x1D5D JUMP JUMPDEST POP POP JUMPDEST POP POP POP JUMP JUMPDEST PUSH1 0x0 DUP3 DUP3 SHR SWAP1 POP SWAP3 SWAP2 POP POP JUMP JUMPDEST PUSH1 0x0 PUSH2 0x1DE4 PUSH1 0x0 NOT DUP5 PUSH1 0x8 MUL PUSH2 0x1DC6 JUMP JUMPDEST NOT DUP1 DUP4 AND SWAP2 POP POP SWAP3 SWAP2 POP POP JUMP JUMPDEST PUSH1 0x0 PUSH2 0x1DFD DUP4 DUP4 PUSH2 0x1DD3 JUMP JUMPDEST SWAP2 POP DUP3 PUSH1 0x2 MUL DUP3 OR SWAP1 POP SWAP3 SWAP2 POP POP JUMP JUMPDEST PUSH2 0x1E16 DUP3 PUSH2 0x13EA JUMP JUMPDEST PUSH8 0xFFFFFFFFFFFFFFFF DUP2 GT ISZERO PUSH2 0x1E2F JUMPI PUSH2 0x1E2E PUSH2 0x160F JUMP JUMPDEST JUMPDEST PUSH2 0x1E39 DUP3 SLOAD PUSH2 0x1AA0 JUMP JUMPDEST PUSH2 0x1E44 DUP3 DUP3 DUP6 PUSH2 0x1D80 JUMP JUMPDEST PUSH1 0x0 PUSH1 0x20 SWAP1 POP PUSH1 0x1F DUP4 GT PUSH1 0x1 DUP2 EQ PUSH2 0x1E77 JUMPI PUSH1 0x0 DUP5 ISZERO PUSH2 0x1E65 JUMPI DUP3 DUP8 ADD MLOAD SWAP1 POP JUMPDEST PUSH2 0x1E6F DUP6 DUP3 PUSH2 0x1DF1 JUMP JUMPDEST DUP7 SSTORE POP PUSH2 0x1ED7 JUMP JUMPDEST PUSH1 0x1F NOT DUP5 AND PUSH2 0x1E85 DUP7 PUSH2 0x1C61 JUMP JUMPDEST PUSH1 0x0 JUMPDEST DUP3 DUP2 LT ISZERO PUSH2 0x1EAD JUMPI DUP5 DUP10 ADD MLOAD DUP3 SSTORE PUSH1 0x1 DUP3 ADD SWAP2 POP PUSH1 0x20 DUP6 ADD SWAP5 POP PUSH1 0x20 DUP2 ADD SWAP1 POP PUSH2 0x1E88 JUMP JUMPDEST DUP7 DUP4 LT ISZERO PUSH2 0x1ECA JUMPI DUP5 DUP10 ADD MLOAD PUSH2 0x1EC6 PUSH1 0x1F DUP10 AND DUP3 PUSH2 0x1DD3 JUMP JUMPDEST DUP4 SSTORE POP JUMPDEST PUSH1 0x1 PUSH1 0x2 DUP9 MUL ADD DUP9 SSTORE POP POP POP JUMPDEST POP POP POP POP POP POP JUMP JUMPDEST PUSH1 0x0 PUSH1 0x20 DUP3 ADD SWAP1 POP DUP2 DUP2 SUB PUSH1 0x0 DUP4 ADD MSTORE PUSH2 0x1EF9 DUP2 DUP5 PUSH2 0x1832 JUMP JUMPDEST SWAP1 POP SWAP3 SWAP2 POP POP JUMP JUMPDEST PUSH32 0x4E487B7100000000000000000000000000000000000000000000000000000000 PUSH1 0x0 MSTORE PUSH1 0x11 PUSH1 0x4 MSTORE PUSH1 0x24 PUSH1 0x0 REVERT JUMPDEST PUSH1 0x0 PUSH2 0x1F3B DUP3 PUSH2 0x131D JUMP JUMPDEST SWAP2 POP PUSH32 0xFFFFFFFFFFFFFFFFFFFFFFFFFFFFFFFFFFFFFFFFFFFFFFFFFFFFFFFFFFFFFFFF DUP3 SUB PUSH2 0x1F6D JUMPI PUSH2 0x1F6C PUSH2 0x1F01 JUMP JUMPDEST JUMPDEST PUSH1 0x1 DUP3 ADD SWAP1 POP SWAP2 SWAP1 POP JUMP INVALID LOG2 PUSH5 0x6970667358 0x22 SLT KECCAK256 PUSH0 SWAP8 DUP11 0xD8 0x1E 0x25 CODECOPY PUSH3 0x525793 0x2B 0x26 DELEGATECALL 0xCD 0xC2 0xE3 0xD2 0xC8 0xDA PUSH28 0xE64F329DCE52451167F0C464736F6C63430008140033000000000000 "},"methodIdentifiers":{"addIssuer(address)":"20694db0","authorizedIssuers(address)":"f731fa0f","credentials(uint256)":"e0574e3f","credentialsOfOwner(address,uint256)":"21b4b0e6","getCredentialById(uint256)":"3ef39e2a","getCredentialsOf(address)":"fb19c3b6","issueCredential(address,string,string)":"9f4ed4fb","owner()":"8da5cb5b","removeIssuer(address)":"47bc7093","renounceOwnership()":"715018a6","revokeCredential(uint256,string)":"957a3205","transferOwnership(address)":"f2fde38b"}}}}}