{
  "_format": "hh-sol-artifact-1",
  "contractName": "CredentialRegistry",
  "sourceName": "contracts/Credentials.sol",
  "abi": [
    {
      "inputs": [
        {
          "internalType": "address",
          "name": "initialOwner",
          "type": "address"
        }
      ],
      "stateMutability": "nonpayable",
      "type": "constructor"
    },
    {
      "inputs": [
        {
          "internalType": "address",
          "name": "owner",
          "type": "address"
        }
      ],
      "name": "OwnableInvalidOwner",
      "type": "error"
    },
    {
      "inputs": [
        {
          "internalType": "address",
          "name": "account",
          "type": "address"
        }
      ],
      "name": "OwnableUnauthorizedAccount",
      "type": "error"
    },
    {
      "anonymous": false,
      "inputs": [
        {
          "indexed": true,
          "internalType": "uint256",
          "name": "credentialId",
          "type": "uint256"
        },
        {
          "indexed": true,
          "internalType": "address",
          "name": "issuer",
          "type": "address"
        },
        {
          "indexed": true,
          "internalType": "address",
          "name": "recipient",
          "type": "address"
        },
        {
          "indexed": false,
          "internalType": "string",
          "name": "credentialType",
          "type": "string"
        }
      ],
      "name": "CredentialIssued",
      "type": "event"
    },
    {
      "anonymous": false,
      "inputs": [
        {
          "indexed": true,
          "internalType": "uint256",
          "name": "credentialId",
          "type": "uint256"
        },
        {
          "indexed": true,
          "internalType": "address",
          "name": "revoker",
          "type": "address"
        }
      ],
      "name": "CredentialRevoked",
      "type": "event"
    },
    {
      "anonymous": false,
      "inputs": [
        {
          "indexed": true,
          "internalType": "address",
          "name": "issuer",
          "type": "address"
        }
      ],
      "name": "IssuerAdded",
      "type": "event"
    },
    {
      "anonymous": false,
      "inputs": [
        {
          "indexed": true,
          "internalType": "address",
          "name": "issuer",
          "type": "address"
        }
      ],
      "name": "IssuerRemoved",
      "type": "event"
    },
    {
      "anonymous": false,
      "inputs": [
        {
          "indexed": true,
          "internalType": "address",
          "name": "previousOwner",
          "type": "address"
        },
        {
          "indexed": true,
          "internalType": "address",
          "name": "newOwner",
          "type": "address"
        }
      ],
      "name": "OwnershipTransferred",
      "type": "event"
    },
    {
      "inputs": [
        {
          "internalType": "address",
          "name": "issuer",
          "type": "address"
        }
      ],
      "name": "addIssuer",
      "outputs": [],
      "stateMutability": "nonpayable",
      "type": "function"
    },
    {
      "inputs": [
        {
          "internalType": "address",
          "name": "",
          "type": "address"
        }
      ],
      "name": "authorizedIssuers",
      "outputs": [
        {
          "internalType": "bool",
          "name": "",
          "type": "bool"
        }
      ],
      "stateMutability": "view",
      "type": "function"
    },
    {
      "inputs": [
        {
          "internalType": "uint256",
          "name": "",
          "type": "uint256"
        }
      ],
      "name": "credentials",
      "outputs": [
        {
          "internalType": "string",
          "name": "metadataURI",
          "type": "string"
        },
        {
          "internalType": "string",
          "name": "credentialType",
          "type": "string"
        },
        {
          "internalType": "address",
          "name": "issuedTo",
          "type": "address"
        },
        {
          "internalType": "address",
          "name": "issuedBy",
          "type": "address"
        },
        {
          "internalType": "uint256",
          "name": "issuedAt",
          "type": "uint256"
        },
        {
          "internalType": "bool",
          "name": "isValid",
          "type": "bool"
        }
      ],
      "stateMutability": "view",
      "type": "function"
    },
    {
      "inputs": [
        {
          "internalType": "address",
          "name": "",
          "type": "address"
        },
        {
          "internalType": "uint256",
          "name": "",
          "type": "uint256"
        }
      ],
      "name": "credentialsOfOwner",
      "outputs": [
        {
          "internalType": "uint256",
          "name": "",
          "type": "uint256"
        }
      ],
      "stateMutability": "view",
      "type": "function"
    },
    {
      "inputs": [
        {
          "internalType": "uint256",
          "name": "credentialId",
          "type": "uint256"
        }
      ],
      "name": "getCredentialById",
      "outputs": [
        {
          "components": [
            {
              "internalType": "string",
              "name": "metadataURI",
              "type": "string"
            },
            {
              "internalType": "string",
              "name": "credentialType",
              "type": "string"
            },
            {
              "internalType": "address",
              "name": "issuedTo",
              "type": "address"
            },
            {
              "internalType": "address",
              "name": "issuedBy",
              "type": "address"
            },
            {
              "internalType": "uint256",
              "name": "issuedAt",
              "type": "uint256"
            },
            {
              "internalType": "bool",
              "name": "isValid",
              "type": "bool"
            }
          ],
          "internalType": "struct CredentialRegistry.Credential",
          "name": "",
          "type": "tuple"
        }
      ],
      "stateMutability": "view",
      "type": "function"
    },
    {
      "inputs": [
        {
          "internalType": "address",
          "name": "owner",
          "type": "address"
        }
      ],
      "name": "getCredentialsOf",
      "outputs": [
        {
          "internalType": "uint256[]",
          "name": "",
          "type": "uint256[]"
        }
      ],
      "stateMutability": "view",
      "type": "function"
    },
    {
      "inputs": [
        {
          "internalType": "address",
          "name": "recipient",
          "type": "address"
        },
        {
          "internalType": "string",
          "name": "credentialType",
          "type": "string"
        },
        {
          "internalType": "string",
          "name": "metadataURI",
          "type": "string"
        }
      ],
      "name": "issueCredential",
      "outputs": [
        {
          "internalType": "uint256",
          "name": "",
          "type": "uint256"
        }
      ],
      "stateMutability": "nonpayable",
      "type": "function"
    },
    {
      "inputs": [],
      "name": "owner",
      "outputs": [
        {
          "internalType": "address",
          "name": "",
          "type": "address"
        }
      ],
      "stateMutability": "view",
      "type": "function"
    },
    {
      "inputs": [
        {
          "internalType": "address",
          "name": "issuer",
          "type": "address"
        }
      ],
      "name": "removeIssuer",
      "outputs": [],
      "stateMutability": "nonpayable",
      "type": "function"
    },
    {
      "inputs": [],
      "name": "renounceOwnership",
      "outputs": [],
      "stateMutability": "nonpayable",
      "type": "function"
    },
    {
      "inputs": [
        {
          "internalType": "uint256",
          "name": "credentialId",
          "type": "uint256"
        }
      ],
      "name": "revokeCredential",
      "outputs": [],
      "stateMutability": "nonpayable",
      "type": "function"
    },
    {
      "inputs": [
        {
          "internalType": "address",
          "name": "newOwner",
          "type": "address"
        }
      ],
      "name": "transferOwnership",
      "outputs": [],
      "stateMutability": "nonpayable",
      "type": "function"
    }
  ],
  "bytecode": "0x60806040523480156200001157600080fd5b5060405162001d0838038062001d088339818101604052810190620000379190620001fb565b80600073ffffffffffffffffffffffffffffffffffffffff168173ffffffffffffffffffffffffffffffffffffffff1603620000ad5760006040517f1e4fbdf7000000000000000000000000000000000000000000000000000000008152600401620000a491906200023e565b60405180910390fd5b620000be81620000cd60201b60201c565b5060018081905550506200025b565b60008060009054906101000a900473ffffffffffffffffffffffffffffffffffffffff169050816000806101000a81548173ffffffffffffffffffffffffffffffffffffffff021916908373ffffffffffffffffffffffffffffffffffffffff1602179055508173ffffffffffffffffffffffffffffffffffffffff168173ffffffffffffffffffffffffffffffffffffffff167f8be0079c531659141344cd1fd0a4f28419497f9722a3daafe3b4186f6b6457e060405160405180910390a35050565b600080fd5b600073ffffffffffffffffffffffffffffffffffffffff82169050919050565b6000620001c38262000196565b9050919050565b620001d581620001b6565b8114620001e157600080fd5b50565b600081519050620001f581620001ca565b92915050565b60006020828403121562000214576200021362000191565b5b60006200022484828501620001e4565b91505092915050565b6200023881620001b6565b82525050565b60006020820190506200025560008301846200022d565b92915050565b611a9d806200026b6000396000f3fe608060405234801561001057600080fd5b50600436106100b45760003560e01c80638da5cb5b116100715780638da5cb5b146101775780639f4ed4fb14610195578063e0574e3f146101c5578063f2fde38b146101fa578063f731fa0f14610216578063fb19c3b614610246576100b4565b80631b87278d146100b957806320694db0146100d557806321b4b0e6146100f15780633ef39e2a1461012157806347bc709314610151578063715018a61461016d575b600080fd5b6100d360048036038101906100ce9190610fb7565b610276565b005b6100ef60048036038101906100ea9190611042565b6103d1565b005b61010b6004803603810190610106919061106f565b610477565b60405161011891906110be565b60405180910390f35b61013b60048036038101906101369190610fb7565b6104a8565b6040516101489190611232565b60405180910390f35b61016b60048036038101906101669190611042565b610723565b005b6101756107c9565b005b61017f6107dd565b60405161018c9190611263565b60405180910390f35b6101af60048036038101906101aa91906113b3565b610806565b6040516101bc91906110be565b60405180910390f35b6101df60048036038101906101da9190610fb7565b610ae0565b6040516101f196959493929190611497565b60405180910390f35b610214600480360381019061020f9190611042565b610c79565b005b610230600480360381019061022b9190611042565b610cff565b60405161023d9190611506565b60405180910390f35b610260600480360381019061025b9190611042565b610d1f565b60405161026d91906115d0565b60405180910390f35b600460003373ffffffffffffffffffffffffffffffffffffffff1673ffffffffffffffffffffffffffffffffffffffff16815260200190815260200160002060009054906101000a900460ff16610302576040517f08c379a00000000000000000000000000000000000000000000000000000000081526004016102f990611664565b60405180910390fd5b600060026000838152602001908152602001600020600401540361035b576040517f08c379a0000000000000000000000000000000000000000000000000000000008152600401610352906116d0565b60405180910390fd5b60006002600083815260200190815260200160002060050160006101000a81548160ff0219169083151502179055503373ffffffffffffffffffffffffffffffffffffffff16817f936526f4a3155895d9f01699716f2e0c548d726a24a1437e5ce92b3dacaad35b60405160405180910390a350565b6103d9610db6565b6001600460008373ffffffffffffffffffffffffffffffffffffffff1673ffffffffffffffffffffffffffffffffffffffff16815260200190815260200160002060006101000a81548160ff0219169083151502179055508073ffffffffffffffffffffffffffffffffffffffff167f05e7c881d716bee8cb7ed92293133ba156704252439e5c502c277448f04e20c260405160405180910390a250565b6003602052816000526040600020818154811061049357600080fd5b90600052602060002001600091509150505481565b6104b0610f09565b6000600260008481526020019081526020016000206004015403610509576040517f08c379a0000000000000000000000000000000000000000000000000000000008152600401610500906116d0565b60405180910390fd5b600260008381526020019081526020016000206040518060c00160405290816000820180546105379061171f565b80601f01602080910402602001604051908101604052809291908181526020018280546105639061171f565b80156105b05780601f10610585576101008083540402835291602001916105b0565b820191906000526020600020905b81548152906001019060200180831161059357829003601f168201915b505050505081526020016001820180546105c99061171f565b80601f01602080910402602001604051908101604052809291908181526020018280546105f59061171f565b80156106425780601f1061061757610100808354040283529160200191610642565b820191906000526020600020905b81548152906001019060200180831161062557829003601f168201915b505050505081526020016002820160009054906101000a900473ffffffffffffffffffffffffffffffffffffffff1673ffffffffffffffffffffffffffffffffffffffff1673ffffffffffffffffffffffffffffffffffffffff1681526020016003820160009054906101000a900473ffffffffffffffffffffffffffffffffffffffff1673ffffffffffffffffffffffffffffffffffffffff1673ffffffffffffffffffffffffffffffffffffffff168152602001600482015481526020016005820160009054906101000a900460ff1615151515815250509050919050565b61072b610db6565b6000600460008373ffffffffffffffffffffffffffffffffffffffff1673ffffffffffffffffffffffffffffffffffffffff16815260200190815260200160002060006101000a81548160ff0219169083151502179055508073ffffffffffffffffffffffffffffffffffffffff167faf66545c919a3be306ee446d8f42a9558b5b022620df880517bc9593ec0f2d5260405160405180910390a250565b6107d1610db6565b6107db6000610e3d565b565b60008060009054906101000a900473ffffffffffffffffffffffffffffffffffffffff16905090565b6000600460003373ffffffffffffffffffffffffffffffffffffffff1673ffffffffffffffffffffffffffffffffffffffff16815260200190815260200160002060009054906101000a900460ff16610894576040517f08c379a000000000000000000000000000000000000000000000000000000000815260040161088b90611664565b60405180910390fd5b600060015490506040518060c001604052808481526020018581526020018673ffffffffffffffffffffffffffffffffffffffff1681526020013373ffffffffffffffffffffffffffffffffffffffff1681526020014281526020016001151581525060026000838152602001908152602001600020600082015181600001908161091f91906118fc565b50602082015181600101908161093591906118fc565b5060408201518160020160006101000a81548173ffffffffffffffffffffffffffffffffffffffff021916908373ffffffffffffffffffffffffffffffffffffffff16021790555060608201518160030160006101000a81548173ffffffffffffffffffffffffffffffffffffffff021916908373ffffffffffffffffffffffffffffffffffffffff1602179055506080820151816004015560a08201518160050160006101000a81548160ff021916908315150217905550905050600360008673ffffffffffffffffffffffffffffffffffffffff1673ffffffffffffffffffffffffffffffffffffffff16815260200190815260200160002081908060018154018082558091505060019003906000526020600020016000909190919091505560016000815480929190610a6a906119fd565b91905055508473ffffffffffffffffffffffffffffffffffffffff163373ffffffffffffffffffffffffffffffffffffffff16827fd1de861db6c309080253d2536a1767c11ee81a3fb2ab87b4e83aa298c2bcbc8d87604051610acd9190611a45565b60405180910390a4809150509392505050565b6002602052806000526040600020600091509050806000018054610b039061171f565b80601f0160208091040260200160405190810160405280929190818152602001828054610b2f9061171f565b8015610b7c5780601f10610b5157610100808354040283529160200191610b7c565b820191906000526020600020905b815481529060010190602001808311610b5f57829003601f168201915b505050505090806001018054610b919061171f565b80601f0160208091040260200160405190810160405280929190818152602001828054610bbd9061171f565b8015610c0a5780601f10610bdf57610100808354040283529160200191610c0a565b820191906000526020600020905b815481529060010190602001808311610bed57829003601f168201915b5050505050908060020160009054906101000a900473ffffffffffffffffffffffffffffffffffffffff16908060030160009054906101000a900473ffffffffffffffffffffffffffffffffffffffff16908060040154908060050160009054906101000a900460ff16905086565b610c81610db6565b600073ffffffffffffffffffffffffffffffffffffffff168173ffffffffffffffffffffffffffffffffffffffff1603610cf35760006040517f1e4fbdf7000000000000000000000000000000000000000000000000000000008152600401610cea9190611263565b60405180910390fd5b610cfc81610e3d565b50565b60046020528060005260406000206000915054906101000a900460ff1681565b6060600360008373ffffffffffffffffffffffffffffffffffffffff1673ffffffffffffffffffffffffffffffffffffffff168152602001908152602001600020805480602002602001604051908101604052809291908181526020018280548015610daa57602002820191906000526020600020905b815481526020019060010190808311610d96575b50505050509050919050565b610dbe610f01565b73ffffffffffffffffffffffffffffffffffffffff16610ddc6107dd565b73ffffffffffffffffffffffffffffffffffffffff1614610e3b57610dff610f01565b6040517f118cdaa7000000000000000000000000000000000000000000000000000000008152600401610e329190611263565b60405180910390fd5b565b60008060009054906101000a900473ffffffffffffffffffffffffffffffffffffffff169050816000806101000a81548173ffffffffffffffffffffffffffffffffffffffff021916908373ffffffffffffffffffffffffffffffffffffffff1602179055508173ffffffffffffffffffffffffffffffffffffffff168173ffffffffffffffffffffffffffffffffffffffff167f8be0079c531659141344cd1fd0a4f28419497f9722a3daafe3b4186f6b6457e060405160405180910390a35050565b600033905090565b6040518060c001604052806060815260200160608152602001600073ffffffffffffffffffffffffffffffffffffffff168152602001600073ffffffffffffffffffffffffffffffffffffffff168152602001600081526020016000151581525090565b6000604051905090565b600080fd5b600080fd5b6000819050919050565b610f9481610f81565b8114610f9f57600080fd5b50565b600081359050610fb181610f8b565b92915050565b600060208284031215610fcd57610fcc610f77565b5b6000610fdb84828501610fa2565b91505092915050565b600073ffffffffffffffffffffffffffffffffffffffff82169050919050565b600061100f82610fe4565b9050919050565b61101f81611004565b811461102a57600080fd5b50565b60008135905061103c81611016565b92915050565b60006020828403121561105857611057610f77565b5b60006110668482850161102d565b91505092915050565b6000806040838503121561108657611085610f77565b5b60006110948582860161102d565b92505060206110a585828601610fa2565b9150509250929050565b6110b881610f81565b82525050565b60006020820190506110d360008301846110af565b92915050565b600081519050919050565b600082825260208201905092915050565b60005b838110156111135780820151818401526020810190506110f8565b60008484015250505050565b6000601f19601f8301169050919050565b600061113b826110d9565b61114581856110e4565b93506111558185602086016110f5565b61115e8161111f565b840191505092915050565b61117281611004565b82525050565b61118181610f81565b82525050565b60008115159050919050565b61119c81611187565b82525050565b600060c08301600083015184820360008601526111bf8282611130565b915050602083015184820360208601526111d98282611130565b91505060408301516111ee6040860182611169565b5060608301516112016060860182611169565b5060808301516112146080860182611178565b5060a083015161122760a0860182611193565b508091505092915050565b6000602082019050818103600083015261124c81846111a2565b905092915050565b61125d81611004565b82525050565b60006020820190506112786000830184611254565b92915050565b600080fd5b600080fd5b7f4e487b7100000000000000000000000000000000000000000000000000000000600052604160045260246000fd5b6112c08261111f565b810181811067ffffffffffffffff821117156112df576112de611288565b5b80604052505050565b60006112f2610f6d565b90506112fe82826112b7565b919050565b600067ffffffffffffffff82111561131e5761131d611288565b5b6113278261111f565b9050602081019050919050565b82818337600083830152505050565b600061135661135184611303565b6112e8565b90508281526020810184848401111561137257611371611283565b5b61137d848285611334565b509392505050565b600082601f83011261139a5761139961127e565b5b81356113aa848260208601611343565b91505092915050565b6000806000606084860312156113cc576113cb610f77565b5b60006113da8682870161102d565b935050602084013567ffffffffffffffff8111156113fb576113fa610f7c565b5b61140786828701611385565b925050604084013567ffffffffffffffff81111561142857611427610f7c565b5b61143486828701611385565b9150509250925092565b600082825260208201905092915050565b600061145a826110d9565b611464818561143e565b93506114748185602086016110f5565b61147d8161111f565b840191505092915050565b61149181611187565b82525050565b600060c08201905081810360008301526114b1818961144f565b905081810360208301526114c5818861144f565b90506114d46040830187611254565b6114e16060830186611254565b6114ee60808301856110af565b6114fb60a0830184611488565b979650505050505050565b600060208201905061151b6000830184611488565b92915050565b600081519050919050565b600082825260208201905092915050565b6000819050602082019050919050565b60006115598383611178565b60208301905092915050565b6000602082019050919050565b600061157d82611521565b611587818561152c565b93506115928361153d565b8060005b838110156115c35781516115aa888261154d565b97506115b583611565565b925050600181019050611596565b5085935050505092915050565b600060208201905081810360008301526115ea8184611572565b905092915050565b7f43616c6c6572206973206e6f7420616e20617574686f72697a6564206973737560008201527f6572000000000000000000000000000000000000000000000000000000000000602082015250565b600061164e60228361143e565b9150611659826115f2565b604082019050919050565b6000602082019050818103600083015261167d81611641565b9050919050565b7f43726564656e7469616c20646f6573206e6f742065786973742e000000000000600082015250565b60006116ba601a8361143e565b91506116c582611684565b602082019050919050565b600060208201905081810360008301526116e9816116ad565b9050919050565b7f4e487b7100000000000000000000000000000000000000000000000000000000600052602260045260246000fd5b6000600282049050600182168061173757607f821691505b60208210810361174a576117496116f0565b5b50919050565b60008190508160005260206000209050919050565b60006020601f8301049050919050565b600082821b905092915050565b6000600883026117b27fffffffffffffffffffffffffffffffffffffffffffffffffffffffffffffffff82611775565b6117bc8683611775565b95508019841693508086168417925050509392505050565b6000819050919050565b60006117f96117f46117ef84610f81565b6117d4565b610f81565b9050919050565b6000819050919050565b611813836117de565b61182761181f82611800565b848454611782565b825550505050565b600090565b61183c61182f565b61184781848461180a565b505050565b5b8181101561186b57611860600082611834565b60018101905061184d565b5050565b601f8211156118b05761188181611750565b61188a84611765565b81016020851015611899578190505b6118ad6118a585611765565b83018261184c565b50505b505050565b600082821c905092915050565b60006118d3600019846008026118b5565b1980831691505092915050565b60006118ec83836118c2565b9150826002028217905092915050565b611905826110d9565b67ffffffffffffffff81111561191e5761191d611288565b5b611928825461171f565b61193382828561186f565b600060209050601f8311600181146119665760008415611954578287015190505b61195e85826118e0565b8655506119c6565b601f19841661197486611750565b60005b8281101561199c57848901518255600182019150602085019450602081019050611977565b868310156119b957848901516119b5601f8916826118c2565b8355505b6001600288020188555050505b505050505050565b7f4e487b7100000000000000000000000000000000000000000000000000000000600052601160045260246000fd5b6000611a0882610f81565b91507fffffffffffffffffffffffffffffffffffffffffffffffffffffffffffffffff8203611a3a57611a396119ce565b5b600182019050919050565b60006020820190508181036000830152611a5f818461144f565b90509291505056fea2646970667358221220d635c39daa2d8dd62b2959607688cac7ec8e21cb2ff55eeab37875d6a80ffe4364736f6c63430008140033",
  "linkReferences": {},
  "deployedLinkReferences": {}
}