{"abi":[{"type":"constructor","inputs":[{"name":"initialOwner","type":"address","internalType":"address"}],"stateMutability":"nonpayable"},{"type":"function","name":"addIssuer","inputs":[{"name":"issuer","type":"address","internalType":"address"}],"outputs":[],"stateMutability":"nonpayable"},{"type":"function","name":"authorizedIssuers","inputs":[{"name":"","type":"address","internalType":"address"}],"outputs":[{"name":"","type":"bool","internalType":"bool"}],"stateMutability":"view"},{"type":"function","name":"credentials","inputs":[{"name":"","type":"uint256","internalType":"uint256"}],"outputs":[{"name":"metadataURI","type":"string","internalType":"string"},{"name":"credentialType","type":"string","internalType":"string"},{"name":"issuedTo","type":"address","internalType":"address"},{"name":"issuedBy","type":"address","internalType":"address"},{"name":"issuedAt","type":"uint256","internalType":"uint256"},{"name":"isValid","type":"bool","internalType":"bool"}],"stateMutability":"view"},{"type":"function","name":"credentialsOfOwner","inputs":[{"name":"","type":"address","internalType":"address"},{"name":"","type":"uint256","internalType":"uint256"}],"outputs":[{"name":"","type":"uint256","internalType":"uint256"}],"stateMutability":"view"},{"type":"function","name":"getCredentialById","inputs":[{"name":"credentialId","type":"uint256","internalType":"uint256"}],"outputs":[{"name":"","type":"tuple","internalType":"struct CredentialRegistry.Credential","components":[{"name":"metadataURI","type":"string","internalType":"string"},{"name":"credentialType","type":"string","internalType":"string"},{"name":"issuedTo","type":"address","internalType":"address"},{"name":"issuedBy","type":"address","internalType":"address"},{"name":"issuedAt","type":"uint256","internalType":"uint256"},{"name":"isValid","type":"bool","internalType":"bool"}]}],"stateMutability":"view"},{"type":"function","name":"getCredentialsOf","inputs":[{"name":"owner","type":"address","internalType":"address"}],"outputs":[{"name":"","type":"uint256[]","internalType":"uint256[]"}],"stateMutability":"view"},{"type":"function","name":"issueCredential","inputs":[{"name":"recipient","type":"address","internalType":"address"},{"name":"credentialType","type":"string","internalType":"string"},{"name":"metadataURI","type":"string","internalType":"string"}],"outputs":[{"name":"","type":"uint256","internalType":"uint256"}],"stateMutability":"nonpayable"},{"type":"function","name":"owner","inputs":[],"outputs":[{"name":"","type":"address","internalType":"address"}],"stateMutability":"view"},{"type":"function","name":"removeIssuer","inputs":[{"name":"issuer","type":"address","internalType":"address"}],"outputs":[],"stateMutability":"nonpayable"},{"type":"function","name":"renounceOwnership","inputs":[],"outputs":[],"stateMutability":"nonpayable"},{"type":"function","name":"revokeCredential","inputs":[{"name":"credentialId","type":"uint256","internalType":"uint256"}],"outputs":[],"stateMutability":"nonpayable"},{"type":"function","name":"transferOwnership","inputs":[{"name":"newOwner","type":"address","internalType":"address"}],"outputs":[],"stateMutability":"nonpayable"},{"type":"event","name":"CredentialIssued","inputs":[{"name":"credentialId","type":"uint256","indexed":true,"internalType":"uint256"},{"name":"issuer","type":"address","indexed":true,"internalType":"address"},{"name":"recipient","type":"address","indexed":true,"internalType":"address"},{"name":"credentialType","type":"string","indexed":false,"internalType":"string"}],"anonymous":false},{"type":"event","name":"CredentialRevoked","inputs":[{"name":"credentialId","type":"uint256","indexed":true,"internalType":"uint256"},{"name":"revoker","type":"address","indexed":true,"internalType":"address"}],"anonymous":false},{"type":"event","name":"IssuerAdded","inputs":[{"name":"issuer","type":"address","indexed":true,"internalType":"address"}],"anonymous":false},{"type":"event","name":"IssuerRemoved","inputs":[{"name":"issuer","type":"address","indexed":true,"internalType":"address"}],"anonymous":false},{"type":"event","name":"OwnershipTransferred","inputs":[{"name":"previousOwner","type":"address","indexed":true,"internalType":"address"},{"name":"newOwner","type":"address","indexed":true,"internalType":"address"}],"anonymous":false},{"type":"error","name":"OwnableInvalidOwner","inputs":[{"name":"owner","type":"address","internalType":"address"}]},{"type":"error","name":"OwnableUnauthorizedAccount","inputs":[{"name":"account","type":"address","internalType":"address"}]}],"bytecode":{"object":"0x608060405234801561000f575f5ffd5b50604051611c0f380380611c0f833981810160405281019061003191906101de565b805f73ffffffffffffffffffffffffffffffffffffffff168173ffffffffffffffffffffffffffffffffffffffff16036100a2575f6040517f1e4fbdf70000000000000000000000000000000000000000000000000000000081526004016100999190610218565b60405180910390fd5b6100b1816100bf60201b60201c565b506001808190555050610231565b5f5f5f9054906101000a900473ffffffffffffffffffffffffffffffffffffffff169050815f5f6101000a81548173ffffffffffffffffffffffffffffffffffffffff021916908373ffffffffffffffffffffffffffffffffffffffff1602179055508173ffffffffffffffffffffffffffffffffffffffff168173ffffffffffffffffffffffffffffffffffffffff167f8be0079c531659141344cd1fd0a4f28419497f9722a3daafe3b4186f6b6457e060405160405180910390a35050565b5f5ffd5b5f73ffffffffffffffffffffffffffffffffffffffff82169050919050565b5f6101ad82610184565b9050919050565b6101bd816101a3565b81146101c7575f5ffd5b50565b5f815190506101d8816101b4565b92915050565b5f602082840312156101f3576101f2610180565b5b5f610200848285016101ca565b91505092915050565b610212816101a3565b82525050565b5f60208201905061022b5f830184610209565b92915050565b6119d18061023e5f395ff3fe608060405234801561000f575f5ffd5b50600436106100b2575f3560e01c80638da5cb5b1161006f5780638da5cb5b146101745780639f4ed4fb14610192578063e0574e3f146101c2578063f2fde38b146101f7578063f731fa0f14610213578063fb19c3b614610243576100b2565b80631b87278d146100b657806320694db0146100d257806321b4b0e6146100ee5780633ef39e2a1461011e57806347bc70931461014e578063715018a61461016a575b5f5ffd5b6100d060048036038101906100cb9190610f59565b610273565b005b6100ec60048036038101906100e79190610fde565b6103c4565b005b61010860048036038101906101039190611009565b610467565b6040516101159190611056565b60405180910390f35b61013860048036038101906101339190610f59565b610492565b60405161014591906111a4565b60405180910390f35b61016860048036038101906101639190610fde565b610700565b005b6101726107a2565b005b61017c6107b5565b60405161018991906111d3565b60405180910390f35b6101ac60048036038101906101a79190611318565b6107dc565b6040516101b99190611056565b60405180910390f35b6101dc60048036038101906101d79190610f59565b610aa4565b6040516101ee969594939291906113f7565b60405180910390f35b610211600480360381019061020c9190610fde565b610c32565b005b61022d60048036038101906102289190610fde565b610cb6565b60405161023a9190611464565b60405180910390f35b61025d60048036038101906102589190610fde565b610cd3565b60405161026a9190611525565b60405180910390f35b60045f3373ffffffffffffffffffffffffffffffffffffffff1673ffffffffffffffffffffffffffffffffffffffff1681526020019081526020015f205f9054906101000a900460ff166102fc576040517f08c379a00000000000000000000000000000000000000000000000000000000081526004016102f3906115b5565b60405180910390fd5b5f60025f8381526020019081526020015f206004015403610352576040517f08c379a00000000000000000000000000000000000000000000000000000000081526004016103499061161d565b60405180910390fd5b5f60025f8381526020019081526020015f206005015f6101000a81548160ff0219169083151502179055503373ffffffffffffffffffffffffffffffffffffffff16817f936526f4a3155895d9f01699716f2e0c548d726a24a1437e5ce92b3dacaad35b60405160405180910390a350565b6103cc610d66565b600160045f8373ffffffffffffffffffffffffffffffffffffffff1673ffffffffffffffffffffffffffffffffffffffff1681526020019081526020015f205f6101000a81548160ff0219169083151502179055508073ffffffffffffffffffffffffffffffffffffffff167f05e7c881d716bee8cb7ed92293133ba156704252439e5c502c277448f04e20c260405160405180910390a250565b6003602052815f5260405f208181548110610480575f80fd5b905f5260205f20015f91509150505481565b61049a610eb5565b5f60025f8481526020019081526020015f2060040154036104f0576040517f08c379a00000000000000000000000000000000000000000000000000000000081526004016104e79061161d565b60405180910390fd5b60025f8381526020019081526020015f206040518060c00160405290815f8201805461051b90611668565b80601f016020809104026020016040519081016040528092919081815260200182805461054790611668565b80156105925780601f1061056957610100808354040283529160200191610592565b820191905f5260205f20905b81548152906001019060200180831161057557829003601f168201915b505050505081526020016001820180546105ab90611668565b80601f01602080910402602001604051908101604052809291908181526020018280546105d790611668565b80156106225780601f106105f957610100808354040283529160200191610622565b820191905f5260205f20905b81548152906001019060200180831161060557829003601f168201915b50505050508152602001600282015f9054906101000a900473ffffffffffffffffffffffffffffffffffffffff1673ffffffffffffffffffffffffffffffffffffffff1673ffffffffffffffffffffffffffffffffffffffff168152602001600382015f9054906101000a900473ffffffffffffffffffffffffffffffffffffffff1673ffffffffffffffffffffffffffffffffffffffff1673ffffffffffffffffffffffffffffffffffffffff16815260200160048201548152602001600582015f9054906101000a900460ff1615151515815250509050919050565b610708610d66565b5f60045f8373ffffffffffffffffffffffffffffffffffffffff1673ffffffffffffffffffffffffffffffffffffffff1681526020019081526020015f205f6101000a81548160ff0219169083151502179055508073ffffffffffffffffffffffffffffffffffffffff167faf66545c919a3be306ee446d8f42a9558b5b022620df880517bc9593ec0f2d5260405160405180910390a250565b6107aa610d66565b6107b35f610ded565b565b5f5f5f9054906101000a900473ffffffffffffffffffffffffffffffffffffffff16905090565b5f60045f3373ffffffffffffffffffffffffffffffffffffffff1673ffffffffffffffffffffffffffffffffffffffff1681526020019081526020015f205f9054906101000a900460ff16610866576040517f08c379a000000000000000000000000000000000000000000000000000000000815260040161085d906115b5565b60405180910390fd5b5f60015490506040518060c001604052808481526020018581526020018673ffffffffffffffffffffffffffffffffffffffff1681526020013373ffffffffffffffffffffffffffffffffffffffff1681526020014281526020016001151581525060025f8381526020019081526020015f205f820151815f0190816108ec9190611838565b5060208201518160010190816109029190611838565b506040820151816002015f6101000a81548173ffffffffffffffffffffffffffffffffffffffff021916908373ffffffffffffffffffffffffffffffffffffffff1602179055506060820151816003015f6101000a81548173ffffffffffffffffffffffffffffffffffffffff021916908373ffffffffffffffffffffffffffffffffffffffff1602179055506080820151816004015560a0820151816005015f6101000a81548160ff02191690831515021790555090505060035f8673ffffffffffffffffffffffffffffffffffffffff1673ffffffffffffffffffffffffffffffffffffffff1681526020019081526020015f2081908060018154018082558091505060019003905f5260205f20015f909190919091505560015f815480929190610a2e90611934565b91905055508473ffffffffffffffffffffffffffffffffffffffff163373ffffffffffffffffffffffffffffffffffffffff16827fd1de861db6c309080253d2536a1767c11ee81a3fb2ab87b4e83aa298c2bcbc8d87604051610a91919061197b565b60405180910390a4809150509392505050565b6002602052805f5260405f205f91509050805f018054610ac390611668565b80601f0160208091040260200160405190810160405280929190818152602001828054610aef90611668565b8015610b3a5780601f10610b1157610100808354040283529160200191610b3a565b820191905f5260205f20905b815481529060010190602001808311610b1d57829003601f168201915b505050505090806001018054610b4f90611668565b80601f0160208091040260200160405190810160405280929190818152602001828054610b7b90611668565b8015610bc65780601f10610b9d57610100808354040283529160200191610bc6565b820191905f5260205f20905b815481529060010190602001808311610ba957829003601f168201915b505050505090806002015f9054906101000a900473ffffffffffffffffffffffffffffffffffffffff1690806003015f9054906101000a900473ffffffffffffffffffffffffffffffffffffffff1690806004015490806005015f9054906101000a900460ff16905086565b610c3a610d66565b5f73ffffffffffffffffffffffffffffffffffffffff168173ffffffffffffffffffffffffffffffffffffffff1603610caa575f6040517f1e4fbdf7000000000000000000000000000000000000000000000000000000008152600401610ca191906111d3565b60405180910390fd5b610cb381610ded565b50565b6004602052805f5260405f205f915054906101000a900460ff1681565b606060035f8373ffffffffffffffffffffffffffffffffffffffff1673ffffffffffffffffffffffffffffffffffffffff1681526020019081526020015f20805480602002602001604051908101604052809291908181526020018280548015610d5a57602002820191905f5260205f20905b815481526020019060010190808311610d46575b50505050509050919050565b610d6e610eae565b73ffffffffffffffffffffffffffffffffffffffff16610d8c6107b5565b73ffffffffffffffffffffffffffffffffffffffff1614610deb57610daf610eae565b6040517f118cdaa7000000000000000000000000000000000000000000000000000000008152600401610de291906111d3565b60405180910390fd5b565b5f5f5f9054906101000a900473ffffffffffffffffffffffffffffffffffffffff169050815f5f6101000a81548173ffffffffffffffffffffffffffffffffffffffff021916908373ffffffffffffffffffffffffffffffffffffffff1602179055508173ffffffffffffffffffffffffffffffffffffffff168173ffffffffffffffffffffffffffffffffffffffff167f8be0079c531659141344cd1fd0a4f28419497f9722a3daafe3b4186f6b6457e060405160405180910390a35050565b5f33905090565b6040518060c0016040528060608152602001606081526020015f73ffffffffffffffffffffffffffffffffffffffff1681526020015f73ffffffffffffffffffffffffffffffffffffffff1681526020015f81526020015f151581525090565b5f604051905090565b5f5ffd5b5f5ffd5b5f819050919050565b610f3881610f26565b8114610f42575f5ffd5b50565b5f81359050610f5381610f2f565b92915050565b5f60208284031215610f6e57610f6d610f1e565b5b5f610f7b84828501610f45565b91505092915050565b5f73ffffffffffffffffffffffffffffffffffffffff82169050919050565b5f610fad82610f84565b9050919050565b610fbd81610fa3565b8114610fc7575f5ffd5b50565b5f81359050610fd881610fb4565b92915050565b5f60208284031215610ff357610ff2610f1e565b5b5f61100084828501610fca565b91505092915050565b5f5f6040838503121561101f5761101e610f1e565b5b5f61102c85828601610fca565b925050602061103d85828601610f45565b9150509250929050565b61105081610f26565b82525050565b5f6020820190506110695f830184611047565b92915050565b5f81519050919050565b5f82825260208201905092915050565b8281835e5f83830152505050565b5f601f19601f8301169050919050565b5f6110b18261106f565b6110bb8185611079565b93506110cb818560208601611089565b6110d481611097565b840191505092915050565b6110e881610fa3565b82525050565b6110f781610f26565b82525050565b5f8115159050919050565b611111816110fd565b82525050565b5f60c083015f8301518482035f86015261113182826110a7565b9150506020830151848203602086015261114b82826110a7565b915050604083015161116060408601826110df565b50606083015161117360608601826110df565b50608083015161118660808601826110ee565b5060a083015161119960a0860182611108565b508091505092915050565b5f6020820190508181035f8301526111bc8184611117565b905092915050565b6111cd81610fa3565b82525050565b5f6020820190506111e65f8301846111c4565b92915050565b5f5ffd5b5f5ffd5b7f4e487b71000000000000000000000000000000000000000000000000000000005f52604160045260245ffd5b61122a82611097565b810181811067ffffffffffffffff82111715611249576112486111f4565b5b80604052505050565b5f61125b610f15565b90506112678282611221565b919050565b5f67ffffffffffffffff821115611286576112856111f4565b5b61128f82611097565b9050602081019050919050565b828183375f83830152505050565b5f6112bc6112b78461126c565b611252565b9050828152602081018484840111156112d8576112d76111f0565b5b6112e384828561129c565b509392505050565b5f82601f8301126112ff576112fe6111ec565b5b813561130f8482602086016112aa565b91505092915050565b5f5f5f6060848603121561132f5761132e610f1e565b5b5f61133c86828701610fca565b935050602084013567ffffffffffffffff81111561135d5761135c610f22565b5b611369868287016112eb565b925050604084013567ffffffffffffffff81111561138a57611389610f22565b5b611396868287016112eb565b9150509250925092565b5f82825260208201905092915050565b5f6113ba8261106f565b6113c481856113a0565b93506113d4818560208601611089565b6113dd81611097565b840191505092915050565b6113f1816110fd565b82525050565b5f60c0820190508181035f83015261140f81896113b0565b9050818103602083015261142381886113b0565b905061143260408301876111c4565b61143f60608301866111c4565b61144c6080830185611047565b61145960a08301846113e8565b979650505050505050565b5f6020820190506114775f8301846113e8565b92915050565b5f81519050919050565b5f82825260208201905092915050565b5f819050602082019050919050565b5f6114b183836110ee565b60208301905092915050565b5f602082019050919050565b5f6114d38261147d565b6114dd8185611487565b93506114e883611497565b805f5b838110156115185781516114ff88826114a6565b975061150a836114bd565b9250506001810190506114eb565b5085935050505092915050565b5f6020820190508181035f83015261153d81846114c9565b905092915050565b7f43616c6c6572206973206e6f7420616e20617574686f72697a656420697373755f8201527f6572000000000000000000000000000000000000000000000000000000000000602082015250565b5f61159f6022836113a0565b91506115aa82611545565b604082019050919050565b5f6020820190508181035f8301526115cc81611593565b9050919050565b7f43726564656e7469616c20646f6573206e6f742065786973742e0000000000005f82015250565b5f611607601a836113a0565b9150611612826115d3565b602082019050919050565b5f6020820190508181035f830152611634816115fb565b9050919050565b7f4e487b71000000000000000000000000000000000000000000000000000000005f52602260045260245ffd5b5f600282049050600182168061167f57607f821691505b6020821081036116925761169161163b565b5b50919050565b5f819050815f5260205f209050919050565b5f6020601f8301049050919050565b5f82821b905092915050565b5f600883026116f47fffffffffffffffffffffffffffffffffffffffffffffffffffffffffffffffff826116b9565b6116fe86836116b9565b95508019841693508086168417925050509392505050565b5f819050919050565b5f61173961173461172f84610f26565b611716565b610f26565b9050919050565b5f819050919050565b6117528361171f565b61176661175e82611740565b8484546116c5565b825550505050565b5f5f905090565b61177d61176e565b611788818484611749565b505050565b5b818110156117ab576117a05f82611775565b60018101905061178e565b5050565b601f8211156117f0576117c181611698565b6117ca846116aa565b810160208510156117d9578190505b6117ed6117e5856116aa565b83018261178d565b50505b505050565b5f82821c905092915050565b5f6118105f19846008026117f5565b1980831691505092915050565b5f6118288383611801565b9150826002028217905092915050565b6118418261106f565b67ffffffffffffffff81111561185a576118596111f4565b5b6118648254611668565b61186f8282856117af565b5f60209050601f8311600181146118a0575f841561188e578287015190505b611898858261181d565b8655506118ff565b601f1984166118ae86611698565b5f5b828110156118d5578489015182556001820191506020850194506020810190506118b0565b868310156118f257848901516118ee601f891682611801565b8355505b6001600288020188555050505b505050505050565b7f4e487b71000000000000000000000000000000000000000000000000000000005f52601160045260245ffd5b5f61193e82610f26565b91507fffffffffffffffffffffffffffffffffffffffffffffffffffffffffffffffff82036119705761196f611907565b5b600182019050919050565b5f6020820190508181035f83015261199381846113b0565b90509291505056fea2646970667358221220a7bcd63eb82510de04ec284db4455ddbb54176cb4d4d8e109beed80a4b9804ee64736f6c634300081e0033","linkReferences":{}},"methodIdentifiers":{"addIssuer(address)":"20694db0","authorizedIssuers(address)":"f731fa0f","credentials(uint256)":"e0574e3f","credentialsOfOwner(address,uint256)":"21b4b0e6","getCredentialById(uint256)":"3ef39e2a","getCredentialsOf(address)":"fb19c3b6","issueCredential(address,string,string)":"9f4ed4fb","owner()":"8da5cb5b","removeIssuer(address)":"47bc7093","renounceOwnership()":"715018a6","revokeCredential(uint256)":"1b87278d","transferOwnership(address)":"f2fde38b"},"id":0}