{"abi":[{"type":"constructor","inputs":[{"name":"initialOwner","type":"address","internalType":"address"}],"stateMutability":"nonpayable"},{"type":"function","name":"addIssuer","inputs":[{"name":"issuer","type":"address","internalType":"address"}],"outputs":[],"stateMutability":"nonpayable"},{"type":"function","name":"authorizedIssuers","inputs":[{"name":"","type":"address","internalType":"address"}],"outputs":[{"name":"","type":"bool","internalType":"bool"}],"stateMutability":"view"},{"type":"function","name":"credentials","inputs":[{"name":"","type":"uint256","internalType":"uint256"}],"outputs":[{"name":"metadataURI","type":"string","internalType":"string"},{"name":"credentialType","type":"string","internalType":"string"},{"name":"issuedTo","type":"address","internalType":"address"},{"name":"issuedBy","type":"address","internalType":"address"},{"name":"issuedAt","type":"uint256","internalType":"uint256"},{"name":"status","type":"uint8","internalType":"enum CredentialRegistry.Status"},{"name":"revocationReason","type":"string","internalType":"string"}],"stateMutability":"view"},{"type":"function","name":"credentialsOfOwner","inputs":[{"name":"","type":"address","internalType":"address"},{"name":"","type":"uint256","internalType":"uint256"}],"outputs":[{"name":"","type":"uint256","internalType":"uint256"}],"stateMutability":"view"},{"type":"function","name":"getCredentialById","inputs":[{"name":"credentialId","type":"uint256","internalType":"uint256"}],"outputs":[{"name":"","type":"tuple","internalType":"struct CredentialRegistry.Credential","components":[{"name":"metadataURI","type":"string","internalType":"string"},{"name":"credentialType","type":"string","internalType":"string"},{"name":"issuedTo","type":"address","internalType":"address"},{"name":"issuedBy","type":"address","internalType":"address"},{"name":"issuedAt","type":"uint256","internalType":"uint256"},{"name":"status","type":"uint8","internalType":"enum CredentialRegistry.Status"},{"name":"revocationReason","type":"string","internalType":"string"}]}],"stateMutability":"view"},{"type":"function","name":"getCredentialsOf","inputs":[{"name":"owner","type":"address","internalType":"address"}],"outputs":[{"name":"","type":"uint256[]","internalType":"uint256[]"}],"stateMutability":"view"},{"type":"function","name":"issueCredential","inputs":[{"name":"recipient","type":"address","internalType":"address"},{"name":"credentialType","type":"string","internalType":"string"},{"name":"metadataURI","type":"string","internalType":"string"}],"outputs":[{"name":"","type":"uint256","internalType":"uint256"}],"stateMutability":"nonpayable"},{"type":"function","name":"owner","inputs":[],"outputs":[{"name":"","type":"address","internalType":"address"}],"stateMutability":"view"},{"type":"function","name":"removeIssuer","inputs":[{"name":"issuer","type":"address","internalType":"address"}],"outputs":[],"stateMutability":"nonpayable"},{"type":"function","name":"renounceOwnership","inputs":[],"outputs":[],"stateMutability":"nonpayable"},{"type":"function","name":"revokeCredential","inputs":[{"name":"credentialId","type":"uint256","internalType":"uint256"},{"name":"reason","type":"string","internalType":"string"}],"outputs":[],"stateMutability":"nonpayable"},{"type":"function","name":"transferOwnership","inputs":[{"name":"newOwner","type":"address","internalType":"address"}],"outputs":[],"stateMutability":"nonpayable"},{"type":"event","name":"CredentialIssued","inputs":[{"name":"credentialId","type":"uint256","indexed":true,"internalType":"uint256"},{"name":"issuer","type":"address","indexed":true,"internalType":"address"},{"name":"recipient","type":"address","indexed":true,"internalType":"address"},{"name":"credentialType","type":"string","indexed":false,"internalType":"string"}],"anonymous":false},{"type":"event","name":"CredentialRevoked","inputs":[{"name":"credentialId","type":"uint256","indexed":true,"internalType":"uint256"},{"name":"revoker","type":"address","indexed":true,"internalType":"address"},{"name":"reason","type":"string","indexed":false,"internalType":"string"}],"anonymous":false},{"type":"event","name":"IssuerAdded","inputs":[{"name":"issuer","type":"address","indexed":true,"internalType":"address"}],"anonymous":false},{"type":"event","name":"IssuerRemoved","inputs":[{"name":"issuer","type":"address","indexed":true,"internalType":"address"}],"anonymous":false},{"type":"event","name":"OwnershipTransferred","inputs":[{"name":"previousOwner","type":"address","indexed":true,"internalType":"address"},{"name":"newOwner","type":"address","indexed":true,"internalType":"address"}],"anonymous":false},{"type":"error","name":"OwnableInvalidOwner","inputs":[{"name":"owner","type":"address","internalType":"address"}]},{"type":"error","name":"OwnableUnauthorizedAccount","inputs":[{"name":"account","type":"address","internalType":"address"}]}],"bytecode":{"object":"0x608060405234801561000f575f5ffd5b50604051612104380380612104833981810160405281019061003191906101de565b805f73ffffffffffffffffffffffffffffffffffffffff168173ffffffffffffffffffffffffffffffffffffffff16036100a2575f6040517f1e4fbdf70000000000000000000000000000000000000000000000000000000081526004016100999190610218565b60405180910390fd5b6100b1816100bf60201b60201c565b506001808190555050610231565b5f5f5f9054906101000a900473ffffffffffffffffffffffffffffffffffffffff169050815f5f6101000a81548173ffffffffffffffffffffffffffffffffffffffff021916908373ffffffffffffffffffffffffffffffffffffffff1602179055508173ffffffffffffffffffffffffffffffffffffffff168173ffffffffffffffffffffffffffffffffffffffff167f8be0079c531659141344cd1fd0a4f28419497f9722a3daafe3b4186f6b6457e060405160405180910390a35050565b5f5ffd5b5f73ffffffffffffffffffffffffffffffffffffffff82169050919050565b5f6101ad82610184565b9050919050565b6101bd816101a3565b81146101c7575f5ffd5b50565b5f815190506101d8816101b4565b92915050565b5f602082840312156101f3576101f2610180565b5b5f610200848285016101ca565b91505092915050565b610212816101a3565b82525050565b5f60208201905061022b5f830184610209565b92915050565b611ec68061023e5f395ff3fe608060405234801561000f575f5ffd5b50600436106100b2575f3560e01c8063957a32051161006f578063957a3205146101765780639f4ed4fb14610192578063e0574e3f146101c2578063f2fde38b146101f8578063f731fa0f14610214578063fb19c3b614610244576100b2565b806320694db0146100b657806321b4b0e6146100d25780633ef39e2a1461010257806347bc709314610132578063715018a61461014e5780638da5cb5b14610158575b5f5ffd5b6100d060048036038101906100cb9190611283565b610274565b005b6100ec60048036038101906100e791906112e1565b610317565b6040516100f9919061132e565b60405180910390f35b61011c60048036038101906101179190611347565b610342565b604051610129919061151a565b60405180910390f35b61014c60048036038101906101479190611283565b610660565b005b610156610702565b005b610160610715565b60405161016d9190611549565b60405180910390f35b610190600480360381019061018b919061168e565b61073c565b005b6101ac60048036038101906101a791906116e8565b6109f3565b6040516101b9919061132e565b60405180910390f35b6101dc60048036038101906101d79190611347565b610d04565b6040516101ef97969594939291906117c7565b60405180910390f35b610212600480360381019061020d9190611283565b610f1e565b005b61022e60048036038101906102299190611283565b610fa2565b60405161023b9190611863565b60405180910390f35b61025e60048036038101906102599190611283565b610fbf565b60405161026b9190611924565b60405180910390f35b61027c611052565b600160045f8373ffffffffffffffffffffffffffffffffffffffff1673ffffffffffffffffffffffffffffffffffffffff1681526020019081526020015f205f6101000a81548160ff0219169083151502179055508073ffffffffffffffffffffffffffffffffffffffff167f05e7c881d716bee8cb7ed92293133ba156704252439e5c502c277448f04e20c260405160405180910390a250565b6003602052815f5260405f208181548110610330575f80fd5b905f5260205f20015f91509150505481565b61034a6111a1565b5f60025f8481526020019081526020015f2060040154036103a0576040517f08c379a00000000000000000000000000000000000000000000000000000000081526004016103979061198e565b60405180910390fd5b60025f8381526020019081526020015f206040518060e00160405290815f820180546103cb906119d9565b80601f01602080910402602001604051908101604052809291908181526020018280546103f7906119d9565b80156104425780601f1061041957610100808354040283529160200191610442565b820191905f5260205f20905b81548152906001019060200180831161042557829003601f168201915b5050505050815260200160018201805461045b906119d9565b80601f0160208091040260200160405190810160405280929190818152602001828054610487906119d9565b80156104d25780601f106104a9576101008083540402835291602001916104d2565b820191905f5260205f20905b8154815290600101906020018083116104b557829003601f168201915b50505050508152602001600282015f9054906101000a900473ffffffffffffffffffffffffffffffffffffffff1673ffffffffffffffffffffffffffffffffffffffff1673ffffffffffffffffffffffffffffffffffffffff168152602001600382015f9054906101000a900473ffffffffffffffffffffffffffffffffffffffff1673ffffffffffffffffffffffffffffffffffffffff1673ffffffffffffffffffffffffffffffffffffffff16815260200160048201548152602001600582015f9054906101000a900460ff1660018111156105b3576105b2611400565b5b60018111156105c5576105c4611400565b5b81526020016006820180546105d9906119d9565b80601f0160208091040260200160405190810160405280929190818152602001828054610605906119d9565b80156106505780601f1061062757610100808354040283529160200191610650565b820191905f5260205f20905b81548152906001019060200180831161063357829003601f168201915b5050505050815250509050919050565b610668611052565b5f60045f8373ffffffffffffffffffffffffffffffffffffffff1673ffffffffffffffffffffffffffffffffffffffff1681526020019081526020015f205f6101000a81548160ff0219169083151502179055508073ffffffffffffffffffffffffffffffffffffffff167faf66545c919a3be306ee446d8f42a9558b5b022620df880517bc9593ec0f2d5260405160405180910390a250565b61070a611052565b6107135f6110d9565b565b5f5f5f9054906101000a900473ffffffffffffffffffffffffffffffffffffffff16905090565b60045f3373ffffffffffffffffffffffffffffffffffffffff1673ffffffffffffffffffffffffffffffffffffffff1681526020019081526020015f205f9054906101000a900460ff166107c5576040517f08c379a00000000000000000000000000000000000000000000000000000000081526004016107bc90611a79565b60405180910390fd5b5f60025f8481526020019081526020015f20600401540361081b576040517f08c379a00000000000000000000000000000000000000000000000000000000081526004016108129061198e565b60405180910390fd5b5f600181111561082e5761082d611400565b5b60025f8481526020019081526020015f206005015f9054906101000a900460ff16600181111561086157610860611400565b5b146108a1576040517f08c379a000000000000000000000000000000000000000000000000000000000815260040161089890611ae1565b60405180910390fd5b60025f8381526020019081526020015f206003015f9054906101000a900473ffffffffffffffffffffffffffffffffffffffff1673ffffffffffffffffffffffffffffffffffffffff163373ffffffffffffffffffffffffffffffffffffffff1614610942576040517f08c379a000000000000000000000000000000000000000000000000000000000815260040161093990611b6f565b60405180910390fd5b600160025f8481526020019081526020015f206005015f6101000a81548160ff0219169083600181111561097957610978611400565b5b02179055508060025f8481526020019081526020015f20600601908161099f9190611d2d565b503373ffffffffffffffffffffffffffffffffffffffff16827f2bca7814b371747acbf1c3f1a94911199a2ea50108626566d35d06f816172be1836040516109e79190611dfc565b60405180910390a35050565b5f60045f3373ffffffffffffffffffffffffffffffffffffffff1673ffffffffffffffffffffffffffffffffffffffff1681526020019081526020015f205f9054906101000a900460ff16610a7d576040517f08c379a0000000000000000000000000000000000000000000000000000000008152600401610a7490611a79565b60405180910390fd5b5f60015490506040518060e001604052808481526020018581526020018673ffffffffffffffffffffffffffffffffffffffff1681526020013373ffffffffffffffffffffffffffffffffffffffff1681526020014281526020015f6001811115610aeb57610aea611400565b5b815260200160405180602001604052805f81525081525060025f8381526020019081526020015f205f820151815f019081610b269190611d2d565b506020820151816001019081610b3c9190611d2d565b506040820151816002015f6101000a81548173ffffffffffffffffffffffffffffffffffffffff021916908373ffffffffffffffffffffffffffffffffffffffff1602179055506060820151816003015f6101000a81548173ffffffffffffffffffffffffffffffffffffffff021916908373ffffffffffffffffffffffffffffffffffffffff1602179055506080820151816004015560a0820151816005015f6101000a81548160ff02191690836001811115610bfd57610bfc611400565b5b021790555060c0820151816006019081610c179190611d2d565b5090505060035f8673ffffffffffffffffffffffffffffffffffffffff1673ffffffffffffffffffffffffffffffffffffffff1681526020019081526020015f2081908060018154018082558091505060019003905f5260205f20015f909190919091505560015f815480929190610c8e90611e49565b91905055508473ffffffffffffffffffffffffffffffffffffffff163373ffffffffffffffffffffffffffffffffffffffff16827fd1de861db6c309080253d2536a1767c11ee81a3fb2ab87b4e83aa298c2bcbc8d87604051610cf19190611dfc565b60405180910390a4809150509392505050565b6002602052805f5260405f205f91509050805f018054610d23906119d9565b80601f0160208091040260200160405190810160405280929190818152602001828054610d4f906119d9565b8015610d9a5780601f10610d7157610100808354040283529160200191610d9a565b820191905f5260205f20905b815481529060010190602001808311610d7d57829003601f168201915b505050505090806001018054610daf906119d9565b80601f0160208091040260200160405190810160405280929190818152602001828054610ddb906119d9565b8015610e265780601f10610dfd57610100808354040283529160200191610e26565b820191905f5260205f20905b815481529060010190602001808311610e0957829003601f168201915b505050505090806002015f9054906101000a900473ffffffffffffffffffffffffffffffffffffffff1690806003015f9054906101000a900473ffffffffffffffffffffffffffffffffffffffff1690806004015490806005015f9054906101000a900460ff1690806006018054610e9d906119d9565b80601f0160208091040260200160405190810160405280929190818152602001828054610ec9906119d9565b8015610f145780601f10610eeb57610100808354040283529160200191610f14565b820191905f5260205f20905b815481529060010190602001808311610ef757829003601f168201915b5050505050905087565b610f26611052565b5f73ffffffffffffffffffffffffffffffffffffffff168173ffffffffffffffffffffffffffffffffffffffff1603610f96575f6040517f1e4fbdf7000000000000000000000000000000000000000000000000000000008152600401610f8d9190611549565b60405180910390fd5b610f9f816110d9565b50565b6004602052805f5260405f205f915054906101000a900460ff1681565b606060035f8373ffffffffffffffffffffffffffffffffffffffff1673ffffffffffffffffffffffffffffffffffffffff1681526020019081526020015f2080548060200260200160405190810160405280929190818152602001828054801561104657602002820191905f5260205f20905b815481526020019060010190808311611032575b50505050509050919050565b61105a61119a565b73ffffffffffffffffffffffffffffffffffffffff16611078610715565b73ffffffffffffffffffffffffffffffffffffffff16146110d75761109b61119a565b6040517f118cdaa70000000000000000000000000000000000000000000000000000000081526004016110ce9190611549565b60405180910390fd5b565b5f5f5f9054906101000a900473ffffffffffffffffffffffffffffffffffffffff169050815f5f6101000a81548173ffffffffffffffffffffffffffffffffffffffff021916908373ffffffffffffffffffffffffffffffffffffffff1602179055508173ffffffffffffffffffffffffffffffffffffffff168173ffffffffffffffffffffffffffffffffffffffff167f8be0079c531659141344cd1fd0a4f28419497f9722a3daafe3b4186f6b6457e060405160405180910390a35050565b5f33905090565b6040518060e0016040528060608152602001606081526020015f73ffffffffffffffffffffffffffffffffffffffff1681526020015f73ffffffffffffffffffffffffffffffffffffffff1681526020015f81526020015f600181111561120b5761120a611400565b5b8152602001606081525090565b5f604051905090565b5f5ffd5b5f5ffd5b5f73ffffffffffffffffffffffffffffffffffffffff82169050919050565b5f61125282611229565b9050919050565b61126281611248565b811461126c575f5ffd5b50565b5f8135905061127d81611259565b92915050565b5f6020828403121561129857611297611221565b5b5f6112a58482850161126f565b91505092915050565b5f819050919050565b6112c0816112ae565b81146112ca575f5ffd5b50565b5f813590506112db816112b7565b92915050565b5f5f604083850312156112f7576112f6611221565b5b5f6113048582860161126f565b9250506020611315858286016112cd565b9150509250929050565b611328816112ae565b82525050565b5f6020820190506113415f83018461131f565b92915050565b5f6020828403121561135c5761135b611221565b5b5f611369848285016112cd565b91505092915050565b5f81519050919050565b5f82825260208201905092915050565b8281835e5f83830152505050565b5f601f19601f8301169050919050565b5f6113b482611372565b6113be818561137c565b93506113ce81856020860161138c565b6113d78161139a565b840191505092915050565b6113eb81611248565b82525050565b6113fa816112ae565b82525050565b7f4e487b71000000000000000000000000000000000000000000000000000000005f52602160045260245ffd5b6002811061143e5761143d611400565b5b50565b5f81905061144e8261142d565b919050565b5f61145d82611441565b9050919050565b61146d81611453565b82525050565b5f60e083015f8301518482035f86015261148d82826113aa565b915050602083015184820360208601526114a782826113aa565b91505060408301516114bc60408601826113e2565b5060608301516114cf60608601826113e2565b5060808301516114e260808601826113f1565b5060a08301516114f560a0860182611464565b5060c083015184820360c086015261150d82826113aa565b9150508091505092915050565b5f6020820190508181035f8301526115328184611473565b905092915050565b61154381611248565b82525050565b5f60208201905061155c5f83018461153a565b92915050565b5f5ffd5b5f5ffd5b7f4e487b71000000000000000000000000000000000000000000000000000000005f52604160045260245ffd5b6115a08261139a565b810181811067ffffffffffffffff821117156115bf576115be61156a565b5b80604052505050565b5f6115d1611218565b90506115dd8282611597565b919050565b5f67ffffffffffffffff8211156115fc576115fb61156a565b5b6116058261139a565b9050602081019050919050565b828183375f83830152505050565b5f61163261162d846115e2565b6115c8565b90508281526020810184848401111561164e5761164d611566565b5b611659848285611612565b509392505050565b5f82601f83011261167557611674611562565b5b8135611685848260208601611620565b91505092915050565b5f5f604083850312156116a4576116a3611221565b5b5f6116b1858286016112cd565b925050602083013567ffffffffffffffff8111156116d2576116d1611225565b5b6116de85828601611661565b9150509250929050565b5f5f5f606084860312156116ff576116fe611221565b5b5f61170c8682870161126f565b935050602084013567ffffffffffffffff81111561172d5761172c611225565b5b61173986828701611661565b925050604084013567ffffffffffffffff81111561175a57611759611225565b5b61176686828701611661565b9150509250925092565b5f82825260208201905092915050565b5f61178a82611372565b6117948185611770565b93506117a481856020860161138c565b6117ad8161139a565b840191505092915050565b6117c181611453565b82525050565b5f60e0820190508181035f8301526117df818a611780565b905081810360208301526117f38189611780565b9050611802604083018861153a565b61180f606083018761153a565b61181c608083018661131f565b61182960a08301856117b8565b81810360c083015261183b8184611780565b905098975050505050505050565b5f8115159050919050565b61185d81611849565b82525050565b5f6020820190506118765f830184611854565b92915050565b5f81519050919050565b5f82825260208201905092915050565b5f819050602082019050919050565b5f6118b083836113f1565b60208301905092915050565b5f602082019050919050565b5f6118d28261187c565b6118dc8185611886565b93506118e783611896565b805f5b838110156119175781516118fe88826118a5565b9750611909836118bc565b9250506001810190506118ea565b5085935050505092915050565b5f6020820190508181035f83015261193c81846118c8565b905092915050565b7f43726564656e7469616c20646f6573206e6f742065786973742e0000000000005f82015250565b5f611978601a83611770565b915061198382611944565b602082019050919050565b5f6020820190508181035f8301526119a58161196c565b9050919050565b7f4e487b71000000000000000000000000000000000000000000000000000000005f52602260045260245ffd5b5f60028204905060018216806119f057607f821691505b602082108103611a0357611a026119ac565b5b50919050565b7f43616c6c6572206973206e6f7420616e20617574686f72697a656420697373755f8201527f6572000000000000000000000000000000000000000000000000000000000000602082015250565b5f611a63602283611770565b9150611a6e82611a09565b604082019050919050565b5f6020820190508181035f830152611a9081611a57565b9050919050565b7f43726564656e7469616c20616c7265616479207265766f6b65642e00000000005f82015250565b5f611acb601b83611770565b9150611ad682611a97565b602082019050919050565b5f6020820190508181035f830152611af881611abf565b9050919050565b7f4f6e6c7920746865206f726967696e616c206973737565722063616e207265765f8201527f6f6b6520746869732063726564656e7469616c2e000000000000000000000000602082015250565b5f611b59603483611770565b9150611b6482611aff565b604082019050919050565b5f6020820190508181035f830152611b8681611b4d565b9050919050565b5f819050815f5260205f209050919050565b5f6020601f8301049050919050565b5f82821b905092915050565b5f60088302611be97fffffffffffffffffffffffffffffffffffffffffffffffffffffffffffffffff82611bae565b611bf38683611bae565b95508019841693508086168417925050509392505050565b5f819050919050565b5f611c2e611c29611c24846112ae565b611c0b565b6112ae565b9050919050565b5f819050919050565b611c4783611c14565b611c5b611c5382611c35565b848454611bba565b825550505050565b5f5f905090565b611c72611c63565b611c7d818484611c3e565b505050565b5b81811015611ca057611c955f82611c6a565b600181019050611c83565b5050565b601f821115611ce557611cb681611b8d565b611cbf84611b9f565b81016020851015611cce578190505b611ce2611cda85611b9f565b830182611c82565b50505b505050565b5f82821c905092915050565b5f611d055f1984600802611cea565b1980831691505092915050565b5f611d1d8383611cf6565b9150826002028217905092915050565b611d3682611372565b67ffffffffffffffff811115611d4f57611d4e61156a565b5b611d5982546119d9565b611d64828285611ca4565b5f60209050601f831160018114611d95575f8415611d83578287015190505b611d8d8582611d12565b865550611df4565b601f198416611da386611b8d565b5f5b82811015611dca57848901518255600182019150602085019450602081019050611da5565b86831015611de75784890151611de3601f891682611cf6565b8355505b6001600288020188555050505b505050505050565b5f6020820190508181035f830152611e148184611780565b905092915050565b7f4e487b71000000000000000000000000000000000000000000000000000000005f52601160045260245ffd5b5f611e53826112ae565b91507fffffffffffffffffffffffffffffffffffffffffffffffffffffffffffffffff8203611e8557611e84611e1c565b5b60018201905091905056fea2646970667358221220a0ab8775f9f5285276cba077f3e73eec63ef379120c5f11d9f61d5fb74285ce064736f6c634300081e0033","linkReferences":{}},"methodIdentifiers":{"addIssuer(address)":"20694db0","authorizedIssuers(address)":"f731fa0f","credentials(uint256)":"e0574e3f","credentialsOfOwner(address,uint256)":"21b4b0e6","getCredentialById(uint256)":"3ef39e2a","getCredentialsOf(address)":"fb19c3b6","issueCredential(address,string,string)":"9f4ed4fb","owner()":"8da5cb5b","removeIssuer(address)":"47bc7093","renounceOwnership()":"715018a6","revokeCredential(uint256,string)":"957a3205","transferOwnership(address)":"f2fde38b"},"id":0}