{
  "_format": "hh-sol-artifact-1",
  "contractName": "CredentialRegistry",
  "sourceName": "contracts/Credentials.sol",
  "abi": [
    {
      "inputs": [
        {
          "internalType": "address",
          "name": "initialOwner",
          "type": "address"
        }
      ],
      "stateMutability": "nonpayable",
      "type": "constructor"
    },
    {
      "inputs": [
        {
          "internalType": "address",
          "name": "owner",
          "type": "address"
        }
      ],
      "name": "OwnableInvalidOwner",
      "type": "error"
    },
    {
      "inputs": [
        {
          "internalType": "address",
          "name": "account",
          "type": "address"
        }
      ],
      "name": "OwnableUnauthorizedAccount",
      "type": "error"
    },
    {
      "anonymous": false,
      "inputs": [
        {
          "indexed": true,
          "internalType": "uint256",
          "name": "credentialId",
          "type": "uint256"
        },
        {
          "indexed": true,
          "internalType": "address",
          "name": "issuer",
          "type": "address"
        },
        {
          "indexed": true,
          "internalType": "address",
          "name": "recipient",
          "type": "address"
        },
        {
          "indexed": false,
          "internalType": "string",
          "name": "credentialType",
          "type": "string"
        }
      ],
      "name": "CredentialIssued",
      "type": "event"
    },
    {
      "anonymous": false,
      "inputs": [
        {
          "indexed": true,
          "internalType": "uint256",
          "name": "credentialId",
          "type": "uint256"
        },
        {
          "indexed": true,
          "internalType": "address",
          "name": "revoker",
          "type": "address"
        },
        {
          "indexed": false,
          "internalType": "string",
          "name": "reason",
          "type": "string"
        }
      ],
      "name": "CredentialRevoked",
      "type": "event"
    },
    {
      "anonymous": false,
      "inputs": [
        {
          "indexed": true,
          "internalType": "address",
          "name": "issuer",
          "type": "address"
        }
      ],
      "name": "IssuerAdded",
      "type": "event"
    },
    {
      "anonymous": false,
      "inputs": [
        {
          "indexed": true,
          "internalType": "address",
          "name": "issuer",
          "type": "address"
        }
      ],
      "name": "IssuerRemoved",
      "type": "event"
    },
    {
      "anonymous": false,
      "inputs": [
        {
          "indexed": true,
          "internalType": "address",
          "name": "previousOwner",
          "type": "address"
        },
        {
          "indexed": true,
          "internalType": "address",
          "name": "newOwner",
          "type": "address"
        }
      ],
      "name": "OwnershipTransferred",
      "type": "event"
    },
    {
      "inputs": [
        {
          "internalType": "address",
          "name": "issuer",
          "type": "address"
        }
      ],
      "name": "addIssuer",
      "outputs": [],
      "stateMutability": "nonpayable",
      "type": "function"
    },
    {
      "inputs": [
        {
          "internalType": "address",
          "name": "",
          "type": "address"
        }
      ],
      "name": "authorizedIssuers",
      "outputs": [
        {
          "internalType": "bool",
          "name": "",
          "type": "bool"
        }
      ],
      "stateMutability": "view",
      "type": "function"
    },
    {
      "inputs": [
        {
          "internalType": "uint256",
          "name": "",
          "type": "uint256"
        }
      ],
      "name": "credentials",
      "outputs": [
        {
          "internalType": "string",
          "name": "metadataURI",
          "type": "string"
        },
        {
          "internalType": "string",
          "name": "credentialType",
          "type": "string"
        },
        {
          "internalType": "address",
          "name": "issuedTo",
          "type": "address"
        },
        {
          "internalType": "address",
          "name": "issuedBy",
          "type": "address"
        },
        {
          "internalType": "uint256",
          "name": "issuedAt",
          "type": "uint256"
        },
        {
          "internalType": "enum CredentialRegistry.Status",
          "name": "status",
          "type": "uint8"
        },
        {
          "internalType": "string",
          "name": "revocationReason",
          "type": "string"
        }
      ],
      "stateMutability": "view",
      "type": "function"
    },
    {
      "inputs": [
        {
          "internalType": "address",
          "name": "",
          "type": "address"
        },
        {
          "internalType": "uint256",
          "name": "",
          "type": "uint256"
        }
      ],
      "name": "credentialsOfOwner",
      "outputs": [
        {
          "internalType": "uint256",
          "name": "",
          "type": "uint256"
        }
      ],
      "stateMutability": "view",
      "type": "function"
    },
    {
      "inputs": [
        {
          "internalType": "uint256",
          "name": "credentialId",
          "type": "uint256"
        }
      ],
      "name": "getCredentialById",
      "outputs": [
        {
          "components": [
            {
              "internalType": "string",
              "name": "metadataURI",
              "type": "string"
            },
            {
              "internalType": "string",
              "name": "credentialType",
              "type": "string"
            },
            {
              "internalType": "address",
              "name": "issuedTo",
              "type": "address"
            },
            {
              "internalType": "address",
              "name": "issuedBy",
              "type": "address"
            },
            {
              "internalType": "uint256",
              "name": "issuedAt",
              "type": "uint256"
            },
            {
              "internalType": "enum CredentialRegistry.Status",
              "name": "status",
              "type": "uint8"
            },
            {
              "internalType": "string",
              "name": "revocationReason",
              "type": "string"
            }
          ],
          "internalType": "struct CredentialRegistry.Credential",
          "name": "",
          "type": "tuple"
        }
      ],
      "stateMutability": "view",
      "type": "function"
    },
    {
      "inputs": [
        {
          "internalType": "address",
          "name": "owner",
          "type": "address"
        }
      ],
      "name": "getCredentialsOf",
      "outputs": [
        {
          "internalType": "uint256[]",
          "name": "",
          "type": "uint256[]"
        }
      ],
      "stateMutability": "view",
      "type": "function"
    },
    {
      "inputs": [
        {
          "internalType": "address",
          "name": "recipient",
          "type": "address"
        },
        {
          "internalType": "string",
          "name": "credentialType",
          "type": "string"
        },
        {
          "internalType": "string",
          "name": "metadataURI",
          "type": "string"
        }
      ],
      "name": "issueCredential",
      "outputs": [
        {
          "internalType": "uint256",
          "name": "",
          "type": "uint256"
        }
      ],
      "stateMutability": "nonpayable",
      "type": "function"
    },
    {
      "inputs": [],
      "name": "owner",
      "outputs": [
        {
          "internalType": "address",
          "name": "",
          "type": "address"
        }
      ],
      "stateMutability": "view",
      "type": "function"
    },
    {
      "inputs": [
        {
          "internalType": "address",
          "name": "issuer",
          "type": "address"
        }
      ],
      "name": "removeIssuer",
      "outputs": [],
      "stateMutability": "nonpayable",
      "type": "function"
    },
    {
      "inputs": [],
      "name": "renounceOwnership",
      "outputs": [],
      "stateMutability": "nonpayable",
      "type": "function"
    },
    {
      "inputs": [
        {
          "internalType": "uint256",
          "name": "credentialId",
          "type": "uint256"
        },
        {
          "internalType": "string",
          "name": "reason",
          "type": "string"
        }
      ],
      "name": "revokeCredential",
      "outputs": [],
      "stateMutability": "nonpayable",
      "type": "function"
    },
    {
      "inputs": [
        {
          "internalType": "address",
          "name": "newOwner",
          "type": "address"
        }
      ],
      "name": "transferOwnership",
      "outputs": [],
      "stateMutability": "nonpayable",
      "type": "function"
    }
  ],
  "bytecode": "0x60806040523480156200001157600080fd5b5060405162002219380380620022198339818101604052810190620000379190620001fb565b80600073ffffffffffffffffffffffffffffffffffffffff168173ffffffffffffffffffffffffffffffffffffffff1603620000ad5760006040517f1e4fbdf7000000000000000000000000000000000000000000000000000000008152600401620000a491906200023e565b60405180910390fd5b620000be81620000cd60201b60201c565b5060018081905550506200025b565b60008060009054906101000a900473ffffffffffffffffffffffffffffffffffffffff169050816000806101000a81548173ffffffffffffffffffffffffffffffffffffffff021916908373ffffffffffffffffffffffffffffffffffffffff1602179055508173ffffffffffffffffffffffffffffffffffffffff168173ffffffffffffffffffffffffffffffffffffffff167f8be0079c531659141344cd1fd0a4f28419497f9722a3daafe3b4186f6b6457e060405160405180910390a35050565b600080fd5b600073ffffffffffffffffffffffffffffffffffffffff82169050919050565b6000620001c38262000196565b9050919050565b620001d581620001b6565b8114620001e157600080fd5b50565b600081519050620001f581620001ca565b92915050565b60006020828403121562000214576200021362000191565b5b60006200022484828501620001e4565b91505092915050565b6200023881620001b6565b82525050565b60006020820190506200025560008301846200022d565b92915050565b611fae806200026b6000396000f3fe608060405234801561001057600080fd5b50600436106100b45760003560e01c8063957a320511610071578063957a3205146101795780639f4ed4fb14610195578063e0574e3f146101c5578063f2fde38b146101fb578063f731fa0f14610217578063fb19c3b614610247576100b4565b806320694db0146100b957806321b4b0e6146100d55780633ef39e2a1461010557806347bc709314610135578063715018a6146101515780638da5cb5b1461015b575b600080fd5b6100d360048036038101906100ce91906112f0565b610277565b005b6100ef60048036038101906100ea9190611353565b61031d565b6040516100fc91906113a2565b60405180910390f35b61011f600480360381019061011a91906113bd565b61034e565b60405161012c91906115b9565b60405180910390f35b61014f600480360381019061014a91906112f0565b61067b565b005b610159610721565b005b610163610735565b60405161017091906115ea565b60405180910390f35b610193600480360381019061018e919061173a565b61075e565b005b6101af60048036038101906101aa9190611796565b610a27565b6040516101bc91906113a2565b60405180910390f35b6101df60048036038101906101da91906113bd565b610d4c565b6040516101f2979695949392919061187a565b60405180910390f35b610215600480360381019061021091906112f0565b610f73565b005b610231600480360381019061022c91906112f0565b610ff9565b60405161023e9190611919565b60405180910390f35b610261600480360381019061025c91906112f0565b611019565b60405161026e91906119e3565b60405180910390f35b61027f6110b0565b6001600460008373ffffffffffffffffffffffffffffffffffffffff1673ffffffffffffffffffffffffffffffffffffffff16815260200190815260200160002060006101000a81548160ff0219169083151502179055508073ffffffffffffffffffffffffffffffffffffffff167f05e7c881d716bee8cb7ed92293133ba156704252439e5c502c277448f04e20c260405160405180910390a250565b6003602052816000526040600020818154811061033957600080fd5b90600052602060002001600091509150505481565b610356611203565b60006002600084815260200190815260200160002060040154036103af576040517f08c379a00000000000000000000000000000000000000000000000000000000081526004016103a690611a51565b60405180910390fd5b600260008381526020019081526020016000206040518060e00160405290816000820180546103dd90611aa0565b80601f016020809104026020016040519081016040528092919081815260200182805461040990611aa0565b80156104565780601f1061042b57610100808354040283529160200191610456565b820191906000526020600020905b81548152906001019060200180831161043957829003601f168201915b5050505050815260200160018201805461046f90611aa0565b80601f016020809104026020016040519081016040528092919081815260200182805461049b90611aa0565b80156104e85780601f106104bd576101008083540402835291602001916104e8565b820191906000526020600020905b8154815290600101906020018083116104cb57829003601f168201915b505050505081526020016002820160009054906101000a900473ffffffffffffffffffffffffffffffffffffffff1673ffffffffffffffffffffffffffffffffffffffff1673ffffffffffffffffffffffffffffffffffffffff1681526020016003820160009054906101000a900473ffffffffffffffffffffffffffffffffffffffff1673ffffffffffffffffffffffffffffffffffffffff1673ffffffffffffffffffffffffffffffffffffffff168152602001600482015481526020016005820160009054906101000a900460ff1660018111156105cc576105cb611498565b5b60018111156105de576105dd611498565b5b81526020016006820180546105f290611aa0565b80601f016020809104026020016040519081016040528092919081815260200182805461061e90611aa0565b801561066b5780601f106106405761010080835404028352916020019161066b565b820191906000526020600020905b81548152906001019060200180831161064e57829003601f168201915b5050505050815250509050919050565b6106836110b0565b6000600460008373ffffffffffffffffffffffffffffffffffffffff1673ffffffffffffffffffffffffffffffffffffffff16815260200190815260200160002060006101000a81548160ff0219169083151502179055508073ffffffffffffffffffffffffffffffffffffffff167faf66545c919a3be306ee446d8f42a9558b5b022620df880517bc9593ec0f2d5260405160405180910390a250565b6107296110b0565b6107336000611137565b565b60008060009054906101000a900473ffffffffffffffffffffffffffffffffffffffff16905090565b600460003373ffffffffffffffffffffffffffffffffffffffff1673ffffffffffffffffffffffffffffffffffffffff16815260200190815260200160002060009054906101000a900460ff166107ea576040517f08c379a00000000000000000000000000000000000000000000000000000000081526004016107e190611b43565b60405180910390fd5b6000600260008481526020019081526020016000206004015403610843576040517f08c379a000000000000000000000000000000000000000000000000000000000815260040161083a90611a51565b60405180910390fd5b6000600181111561085757610856611498565b5b6002600084815260200190815260200160002060050160009054906101000a900460ff16600181111561088d5761088c611498565b5b146108cd576040517f08c379a00000000000000000000000000000000000000000000000000000000081526004016108c490611baf565b60405180910390fd5b6002600083815260200190815260200160002060030160009054906101000a900473ffffffffffffffffffffffffffffffffffffffff1673ffffffffffffffffffffffffffffffffffffffff163373ffffffffffffffffffffffffffffffffffffffff1614610971576040517f08c379a000000000000000000000000000000000000000000000000000000000815260040161096890611c41565b60405180910390fd5b60016002600084815260200190815260200160002060050160006101000a81548160ff021916908360018111156109ab576109aa611498565b5b0217905550806002600084815260200190815260200160002060060190816109d39190611e0d565b503373ffffffffffffffffffffffffffffffffffffffff16827f2bca7814b371747acbf1c3f1a94911199a2ea50108626566d35d06f816172be183604051610a1b9190611edf565b60405180910390a35050565b6000600460003373ffffffffffffffffffffffffffffffffffffffff1673ffffffffffffffffffffffffffffffffffffffff16815260200190815260200160002060009054906101000a900460ff16610ab5576040517f08c379a0000000000000000000000000000000000000000000000000000000008152600401610aac90611b43565b60405180910390fd5b600060015490506040518060e001604052808481526020018581526020018673ffffffffffffffffffffffffffffffffffffffff1681526020013373ffffffffffffffffffffffffffffffffffffffff16815260200142815260200160006001811115610b2557610b24611498565b5b815260200160405180602001604052806000815250815250600260008381526020019081526020016000206000820151816000019081610b659190611e0d565b506020820151816001019081610b7b9190611e0d565b5060408201518160020160006101000a81548173ffffffffffffffffffffffffffffffffffffffff021916908373ffffffffffffffffffffffffffffffffffffffff16021790555060608201518160030160006101000a81548173ffffffffffffffffffffffffffffffffffffffff021916908373ffffffffffffffffffffffffffffffffffffffff1602179055506080820151816004015560a08201518160050160006101000a81548160ff02191690836001811115610c3f57610c3e611498565b5b021790555060c0820151816006019081610c599190611e0d565b50905050600360008673ffffffffffffffffffffffffffffffffffffffff1673ffffffffffffffffffffffffffffffffffffffff16815260200190815260200160002081908060018154018082558091505060019003906000526020600020016000909190919091505560016000815480929190610cd690611f30565b91905055508473ffffffffffffffffffffffffffffffffffffffff163373ffffffffffffffffffffffffffffffffffffffff16827fd1de861db6c309080253d2536a1767c11ee81a3fb2ab87b4e83aa298c2bcbc8d87604051610d399190611edf565b60405180910390a4809150509392505050565b6002602052806000526040600020600091509050806000018054610d6f90611aa0565b80601f0160208091040260200160405190810160405280929190818152602001828054610d9b90611aa0565b8015610de85780601f10610dbd57610100808354040283529160200191610de8565b820191906000526020600020905b815481529060010190602001808311610dcb57829003601f168201915b505050505090806001018054610dfd90611aa0565b80601f0160208091040260200160405190810160405280929190818152602001828054610e2990611aa0565b8015610e765780601f10610e4b57610100808354040283529160200191610e76565b820191906000526020600020905b815481529060010190602001808311610e5957829003601f168201915b5050505050908060020160009054906101000a900473ffffffffffffffffffffffffffffffffffffffff16908060030160009054906101000a900473ffffffffffffffffffffffffffffffffffffffff16908060040154908060050160009054906101000a900460ff1690806006018054610ef090611aa0565b80601f0160208091040260200160405190810160405280929190818152602001828054610f1c90611aa0565b8015610f695780601f10610f3e57610100808354040283529160200191610f69565b820191906000526020600020905b815481529060010190602001808311610f4c57829003601f168201915b5050505050905087565b610f7b6110b0565b600073ffffffffffffffffffffffffffffffffffffffff168173ffffffffffffffffffffffffffffffffffffffff1603610fed5760006040517f1e4fbdf7000000000000000000000000000000000000000000000000000000008152600401610fe491906115ea565b60405180910390fd5b610ff681611137565b50565b60046020528060005260406000206000915054906101000a900460ff1681565b6060600360008373ffffffffffffffffffffffffffffffffffffffff1673ffffffffffffffffffffffffffffffffffffffff1681526020019081526020016000208054806020026020016040519081016040528092919081815260200182805480156110a457602002820191906000526020600020905b815481526020019060010190808311611090575b50505050509050919050565b6110b86111fb565b73ffffffffffffffffffffffffffffffffffffffff166110d6610735565b73ffffffffffffffffffffffffffffffffffffffff1614611135576110f96111fb565b6040517f118cdaa700000000000000000000000000000000000000000000000000000000815260040161112c91906115ea565b60405180910390fd5b565b60008060009054906101000a900473ffffffffffffffffffffffffffffffffffffffff169050816000806101000a81548173ffffffffffffffffffffffffffffffffffffffff021916908373ffffffffffffffffffffffffffffffffffffffff1602179055508173ffffffffffffffffffffffffffffffffffffffff168173ffffffffffffffffffffffffffffffffffffffff167f8be0079c531659141344cd1fd0a4f28419497f9722a3daafe3b4186f6b6457e060405160405180910390a35050565b600033905090565b6040518060e001604052806060815260200160608152602001600073ffffffffffffffffffffffffffffffffffffffff168152602001600073ffffffffffffffffffffffffffffffffffffffff168152602001600081526020016000600181111561127157611270611498565b5b8152602001606081525090565b6000604051905090565b600080fd5b600080fd5b600073ffffffffffffffffffffffffffffffffffffffff82169050919050565b60006112bd82611292565b9050919050565b6112cd816112b2565b81146112d857600080fd5b50565b6000813590506112ea816112c4565b92915050565b60006020828403121561130657611305611288565b5b6000611314848285016112db565b91505092915050565b6000819050919050565b6113308161131d565b811461133b57600080fd5b50565b60008135905061134d81611327565b92915050565b6000806040838503121561136a57611369611288565b5b6000611378858286016112db565b92505060206113898582860161133e565b9150509250929050565b61139c8161131d565b82525050565b60006020820190506113b76000830184611393565b92915050565b6000602082840312156113d3576113d2611288565b5b60006113e18482850161133e565b91505092915050565b600081519050919050565b600082825260208201905092915050565b60005b83811015611424578082015181840152602081019050611409565b60008484015250505050565b6000601f19601f8301169050919050565b600061144c826113ea565b61145681856113f5565b9350611466818560208601611406565b61146f81611430565b840191505092915050565b611483816112b2565b82525050565b6114928161131d565b82525050565b7f4e487b7100000000000000000000000000000000000000000000000000000000600052602160045260246000fd5b600281106114d8576114d7611498565b5b50565b60008190506114e9826114c7565b919050565b60006114f9826114db565b9050919050565b611509816114ee565b82525050565b600060e083016000830151848203600086015261152c8282611441565b915050602083015184820360208601526115468282611441565b915050604083015161155b604086018261147a565b50606083015161156e606086018261147a565b5060808301516115816080860182611489565b5060a083015161159460a0860182611500565b5060c083015184820360c08601526115ac8282611441565b9150508091505092915050565b600060208201905081810360008301526115d3818461150f565b905092915050565b6115e4816112b2565b82525050565b60006020820190506115ff60008301846115db565b92915050565b600080fd5b600080fd5b7f4e487b7100000000000000000000000000000000000000000000000000000000600052604160045260246000fd5b61164782611430565b810181811067ffffffffffffffff821117156116665761166561160f565b5b80604052505050565b600061167961127e565b9050611685828261163e565b919050565b600067ffffffffffffffff8211156116a5576116a461160f565b5b6116ae82611430565b9050602081019050919050565b82818337600083830152505050565b60006116dd6116d88461168a565b61166f565b9050828152602081018484840111156116f9576116f861160a565b5b6117048482856116bb565b509392505050565b600082601f83011261172157611720611605565b5b81356117318482602086016116ca565b91505092915050565b6000806040838503121561175157611750611288565b5b600061175f8582860161133e565b925050602083013567ffffffffffffffff8111156117805761177f61128d565b5b61178c8582860161170c565b9150509250929050565b6000806000606084860312156117af576117ae611288565b5b60006117bd868287016112db565b935050602084013567ffffffffffffffff8111156117de576117dd61128d565b5b6117ea8682870161170c565b925050604084013567ffffffffffffffff81111561180b5761180a61128d565b5b6118178682870161170c565b9150509250925092565b600082825260208201905092915050565b600061183d826113ea565b6118478185611821565b9350611857818560208601611406565b61186081611430565b840191505092915050565b611874816114ee565b82525050565b600060e0820190508181036000830152611894818a611832565b905081810360208301526118a88189611832565b90506118b760408301886115db565b6118c460608301876115db565b6118d16080830186611393565b6118de60a083018561186b565b81810360c08301526118f08184611832565b905098975050505050505050565b60008115159050919050565b611913816118fe565b82525050565b600060208201905061192e600083018461190a565b92915050565b600081519050919050565b600082825260208201905092915050565b6000819050602082019050919050565b600061196c8383611489565b60208301905092915050565b6000602082019050919050565b600061199082611934565b61199a818561193f565b93506119a583611950565b8060005b838110156119d65781516119bd8882611960565b97506119c883611978565b9250506001810190506119a9565b5085935050505092915050565b600060208201905081810360008301526119fd8184611985565b905092915050565b7f43726564656e7469616c20646f6573206e6f742065786973742e000000000000600082015250565b6000611a3b601a83611821565b9150611a4682611a05565b602082019050919050565b60006020820190508181036000830152611a6a81611a2e565b9050919050565b7f4e487b7100000000000000000000000000000000000000000000000000000000600052602260045260246000fd5b60006002820490506001821680611ab857607f821691505b602082108103611acb57611aca611a71565b5b50919050565b7f43616c6c6572206973206e6f7420616e20617574686f72697a6564206973737560008201527f6572000000000000000000000000000000000000000000000000000000000000602082015250565b6000611b2d602283611821565b9150611b3882611ad1565b604082019050919050565b60006020820190508181036000830152611b5c81611b20565b9050919050565b7f43726564656e7469616c20616c7265616479207265766f6b65642e0000000000600082015250565b6000611b99601b83611821565b9150611ba482611b63565b602082019050919050565b60006020820190508181036000830152611bc881611b8c565b9050919050565b7f4f6e6c7920746865206f726967696e616c206973737565722063616e2072657660008201527f6f6b6520746869732063726564656e7469616c2e000000000000000000000000602082015250565b6000611c2b603483611821565b9150611c3682611bcf565b604082019050919050565b60006020820190508181036000830152611c5a81611c1e565b9050919050565b60008190508160005260206000209050919050565b60006020601f8301049050919050565b600082821b905092915050565b600060088302611cc37fffffffffffffffffffffffffffffffffffffffffffffffffffffffffffffffff82611c86565b611ccd8683611c86565b95508019841693508086168417925050509392505050565b6000819050919050565b6000611d0a611d05611d008461131d565b611ce5565b61131d565b9050919050565b6000819050919050565b611d2483611cef565b611d38611d3082611d11565b848454611c93565b825550505050565b600090565b611d4d611d40565b611d58818484611d1b565b505050565b5b81811015611d7c57611d71600082611d45565b600181019050611d5e565b5050565b601f821115611dc157611d9281611c61565b611d9b84611c76565b81016020851015611daa578190505b611dbe611db685611c76565b830182611d5d565b50505b505050565b600082821c905092915050565b6000611de460001984600802611dc6565b1980831691505092915050565b6000611dfd8383611dd3565b9150826002028217905092915050565b611e16826113ea565b67ffffffffffffffff811115611e2f57611e2e61160f565b5b611e398254611aa0565b611e44828285611d80565b600060209050601f831160018114611e775760008415611e65578287015190505b611e6f8582611df1565b865550611ed7565b601f198416611e8586611c61565b60005b82811015611ead57848901518255600182019150602085019450602081019050611e88565b86831015611eca5784890151611ec6601f891682611dd3565b8355505b6001600288020188555050505b505050505050565b60006020820190508181036000830152611ef98184611832565b905092915050565b7f4e487b7100000000000000000000000000000000000000000000000000000000600052601160045260246000fd5b6000611f3b8261131d565b91507fffffffffffffffffffffffffffffffffffffffffffffffffffffffffffffffff8203611f6d57611f6c611f01565b5b60018201905091905056fea26469706673582212205f978ad81e2539625257932b26f4cdc2e3d2c8da7be64f329dce52451167f0c464736f6c63430008140033",
  "linkReferences": {},
  "deployedLinkReferences": {}
}